:020000040800F2
:1000000000000120011C00088D1B0008911B000846
:10001000951B0008991B00089D1B000800000000AC
:10002000000000000000000000000000A11B00080C
:10003000A51B000800000000A91B0008AD1B00085C
:10004000511C0008511C0008511C0008511C0008DC
:10005000511C0008511C0008511C0008511C0008CC
:10006000511C0008511C0008511C0008511C0008BC
:10007000511C0008511C0008511C0008D51B000829
:10008000511C0008E11B0008511C0008511C00080D
:10009000511C0008511C0008511C0008511C00088C
:1000A000511C0008511C0008511C0008511C00087C
:1000B000511C00080000000000000000511C000856
:1000C000511C00080000000000000000511C000846
:1000D00000000000BD1B0008C91B00080000000054
:1000E000511C0008511C0008000000000000000026
:1000F0000000000000000000000000000000000000
:10010000000000000000000000000000511C00087A
:100110000000000000000000511C0008511C0008F5
:10012000511C0008511C0008511C0008511C0008FB
:10013000511C00080000000000000000000000004A
:10014000511C0008511C0008511C0008511C0008DB
:10015000511C0008511C0008511C0008511C0008CB
:10016000511C0008511C0008511C00080000000030
:10017000511C0008511C0008000000000000000095
:0C018000511C0008511C0008511C000814
:1001C00081F0004102E000BF83F0004330B54FEA08
:1001D00041044FEA430594EA050F08BF90EA020F75
:1001E0001FBF54EA000C55EA020C7FEA645C7FEA08
:1001F000655C00F0E2804FEA5454D4EB5555B8BF2B
:100200006D420CDD2C4480EA020281EA030382EA9B
:10021000000083EA010180EA020281EA0303362D2D
:1002200088BF30BD11F0004F4FEA01314FF4801C00
:100230004CEA113102D0404261EB410113F0004F12
:100240004FEA03334CEA133302D0524263EB4303C9
:1002500094EA050F00F0A780A4F10104D5F1200E67
:100260000DDB02FA0EFC22FA05F2801841F10001C2
:1002700003FA0EF2801843FA05F359410EE0A5F196
:1002800020050EF1200E012A03FA0EFC28BF4CF0C7
:10029000020C43FA05F3C01851EBE37101F000457D
:1002A00007D54FF0000EDCF1000C7EEB00006EEB8A
:1002B0000101B1F5801F1BD3B1F5001F0CD3490814
:1002C0005FEA30004FEA3C0C04F101044FEA44526B
:1002D00012F5800F80F09A80BCF1004F08BF5FEAF2
:1002E000500C50F1000041EB045141EA050130BDD2
:1002F0005FEA4C0C404141EB0101013C28BFB1F5E4
:10030000801FE9D291F0000F04BF01460020B1FA2E
:1003100081F308BF2033A3F10B03B3F120020CDA01
:100320000C3208DD02F1140CC2F10C0201FA0CF0DF
:1003300021FA02F10CE002F11402D8BFC2F1200C44
:1003400001FA02F120FA0CFCDCBF41EA0C019040FA
:10035000E41AA2BF01EB0451294330BD6FEA040443
:100360001F3C1CDA0C340EDC04F11404C4F120022E
:1003700020FA04F001FA02F340EA030021FA04F340
:1003800045EA030130BDC4F10C04C4F1200220FA97
:1003900002F001FA04F340EA0300294630BD21FAD5
:1003A00004F0294630BD94F0000F83F4801306BF9B
:1003B00081F480110134013D4EE77FEA645C18BF8F
:1003C0007FEA655C29D094EA050F08BF90EA020F26
:1003D00005D054EA000C04BF1946104630BD91EA1E
:1003E000030F1EBF0021002030BD5FEA545C05D121
:1003F0004000494128BF41F0004130BD14F5800460
:100400003CBF01F5801130BD01F0004545F0FE41D3
:1004100041F470014FF0000030BD7FEA645C1ABF08
:10042000194610467FEA655C1CBF0B46024650EA3F
:10043000013406BF52EA033591EA030F41F400216B
:1004400030BD00BF90F0000F04BF0021704730B5F1
:100450004FF4806404F132044FF000054FF00001C6
:1004600050E700BF90F0000F04BF0021704730B587
:100470004FF4806404F1320410F0004548BF40425C
:100480004FF000013EE700BF42004FEAE2014FEAB1
:1004900031014FEA02701FBF12F07F4393F07F4F8C
:1004A00081F06051704732F07F4208BF704793F08F
:1004B0007F4F04BF41F40021704730B54FF46074A2
:1004C00001F0004521F000411CE700BF50EA0102A5
:1004D00008BF704730B54FF000050AE050EA01024E
:1004E00008BF704730B511F0004502D5404261EBBE
:1004F00041014FF4806404F132045FEA915C3FF4FF
:10050000D8AE4FF003025FEADC0C18BF03325FEA9B
:10051000DC0C18BF033202EBDC02C2F1200300FA4C
:1005200003FC20FA02F001FA03FE40EA0E0021FA71
:1005300002F11444BDE600BF70B54FF0FF0C4CF45F
:10054000E06C1CEA11541DBF1CEA135594EA0C0F11
:1005500095EA0C0F00F0DEF82C4481EA030621EA4C
:100560004C5123EA4C5350EA013518BF52EA033587
:1005700041F4801143F4801338D0A0FB02CE4FF039
:100580000005E1FB02E506F00042E0FB03E54FF069
:100590000006E1FB03569CF0000F18BF4EF0010E61
:1005A000A4F1FF04B6F5007F64F5407404D25FEA5D
:1005B0004E0E6D4146EB060642EAC62141EA555110
:1005C0004FEAC52040EA5E504FEACE2EB4F1FD0C52
:1005D00088BFBCF5E06F1ED8BEF1004F08BF5FEAD0
:1005E000500E50F1000041EB045170BD06F0004682
:1005F00046EA010140EA020081EA0301B4EB5C042F
:10060000C2BFD4EB0C0541EA045170BD41F4801126
:100610004FF0000E013C00F3AB8014F1360FDEBF4B
:10062000002001F0004170BDC4F10004203C35DA27
:100630000C341BDC04F11404C4F1200500FA05F3AA
:1006400020FA04F001FA05F240EA020001F000424B
:1006500021F0004110EBD37021FA04F642EB0601C1
:100660005EEA430E08BF20EAD37070BDC4F10C04EB
:10067000C4F1200500FA04F320FA05F001FA04F2AF
:1006800040EA020001F0004110EBD37041F100019B
:100690005EEA430E08BF20EAD37070BDC4F12005A6
:1006A00000FA05F24EEA020E20FA04F301FA05F20E
:1006B00043EA020321FA04F001F0004121FA04F2B6
:1006C00020EA020000EBD3705EEA430E08BF20EA86
:1006D000D37070BD94F0000F0FD101F000464000C0
:1006E00041EB010111F4801F08BF013CF7D041EA42
:1006F000060195F0000F18BF704703F00046520046
:1007000043EB030313F4801F08BF013DF7D043EA16
:100710000603704794EA0C0F0CEA135518BF95EACC
:100720000C0F0CD050EA410618BF52EA4306D1D153
:1007300081EA030101F000414FF0000070BD50EA72
:10074000410606BF1046194652EA430619D094EAFC
:100750000C0F02D150EA013613D195EA0C0F05D1E6
:1007600052EA03361CBF104619460AD181EA03013A
:1007700001F0004141F0FE4141F470014FF00000F2
:1007800070BD41F0FE4141F4780170BD70B54FF08D
:10079000FF0C4CF4E06C1CEA11541DBF1CEA13550D
:1007A00094EA0C0F95EA0C0F00F0A7F8A4EB0504EF
:1007B00081EA030E52EA03354FEA013100F08880E6
:1007C0004FEA03334FF0805545EA131343EA1263AF
:1007D0004FEA022245EA111545EA10654FEA002664
:1007E0000EF000419D4208BF964244F1FD0404F51D
:1007F000407402D25B084FEA3202B61A65EB030579
:100800005B084FEA32024FF480104FF4002CB6EB35
:10081000020E75EB030E22BFB61A754640EA0C00B5
:100820005B084FEA3202B6EB020E75EB030E22BFF5
:10083000B61A754640EA5C005B084FEA3202B6EB36
:10084000020E75EB030E22BFB61A754640EA9C00F5
:100850005B084FEA3202B6EB020E75EB030E22BFC5
:10086000B61A754640EADC0055EA060E18D04FEA83
:10087000051545EA16754FEA06164FEAC30343EA23
:1008800052734FEAC2025FEA1C1CC0D111F4801FF0
:100890000BD141EA00014FF000004FF0004CB6E7E9
:1008A00011F4801F04BF01430020B4F1FD0C88BF88
:1008B000BCF5E06F3FF6AFAEB5EB030C04BFB6EB93
:1008C000020C5FEA500C50F1000041EB045170BD86
:1008D0000EF0004E4EEA113114EB5C04C2BFD4EBB3
:1008E0000C0541EA045170BD41F480114FF0000E37
:1008F000013C90E645EA060E8DE60CEA135594EAB3
:100900000C0F08BF95EA0C0F3FF43BAF94EA0C0FB5
:100910000AD150EA01347FF434AF95EA0C0F7FF42A
:1009200025AF104619462CE795EA0C0F06D152EA7E
:1009300003353FF4FDAE1046194622E750EA410662
:1009400018BF52EA43067FF4C5AE50EA41047FF473
:100950000DAF52EA43057FF4EBAE12E74FEA4102D6
:10096000B2F1E04324BFB3F5001CDCF1FE5C0DD90D
:1009700001F0004C4FEAC0024CEA5070B2F1004F57
:1009800040EB830008BF20F00100704711F0804F5A
:1009900021D113F13872BCBF01F00040704741F41F
:1009A00080114FEA5252C2F11802C2F1200C10FA23
:1009B0000CF320FA02F018BF40F001004FEAC12307
:1009C0004FEAD32303FA0CFC40EA0C0023FA02F3AB
:1009D0004FEA4303CCE77FEA625307D150EA013381
:1009E0001EBF4FF0FE4040F44000704701F0004051
:1009F00040F0FE4040F40000704700BF53B94AB9D0
:100A0000002908BF00281CBF4FF0FF314FF0FF3016
:100A100000F00CB8ADF1080C6DE904CE02F0BAFF9D
:100A2000DDF804E0DDE9022304B07047704700BF41
:100A3000844641EA000313F003036DD1403A41D3E9
:100A400051F8043B40F8043B51F8043B40F8043BA8
:100A500051F8043B40F8043B51F8043B40F8043B98
:100A600051F8043B40F8043B51F8043B40F8043B88
:100A700051F8043B40F8043B51F8043B40F8043B78
:100A800051F8043B40F8043B51F8043B40F8043B68
:100A900051F8043B40F8043B51F8043B40F8043B58
:100AA00051F8043B40F8043B51F8043B40F8043B48
:100AB00051F8043B40F8043B51F8043B40F8043B38
:100AC000403ABDD2303211D351F8043B40F8043BD8
:100AD00051F8043B40F8043B51F8043B40F8043B18
:100AE00051F8043B40F8043B103AEDD20C3205D3E8
:100AF00051F8043B40F8043B043AF9D2043208D0E0
:100B0000D2071CBF11F8013B00F8013B01D30B8851
:100B100003806046704700BF082A13D38B078DD02F
:100B200010F003038AD0C3F10403D21ADB071CBF01
:100B300011F8013B00F8013B80D331F8023B20F86B
:100B4000023B7BE7043AD9D3013A11F8013B00F8A4
:100B5000013BF9D20B7803704B7843708B7883702C
:100B60006046704700000000000000000000000028
:100B70000000000000000000000000000000000075
:100B800030B490F800F020F007016FF0000C10F086
:100B9000070491F820F040F048804FF000046FF017
:100BA0000700D1E9002391F840F000F1080082FA33
:100BB0004CF2A4FA8CF283FA4CF3A2FA8CF34BBBFE
:100BC000D1E9022382FA4CF200F10800A4FA8CF277
:100BD00083FA4CF3A2FA8CF3E3B9D1E9042382FA45
:100BE0004CF200F10800A4FA8CF283FA4CF3A2FA5A
:100BF0008CF37BB9D1E9062301F1200182FA4CF292
:100C000000F10800A4FA8CF283FA4CF3A2FA8CF3F8
:100C1000002BC6D0002A04BF04301A4612BAB2FA1A
:100C200082F200EBD20030BC7047D1E9002304F01F
:100C30000305C4F100004FEAC50514F0040F91F854
:100C400040F00CFA05F562EA05021CBF63EA0503F1
:100C500062464FF00004AAE70348044B834202D0E7
:100C6000034B03B1184770471C0200201C020020F0
:100C7000000000000548064B1B1AD90F01EBA30129
:100C8000491002D0034B03B1184770471C020020E3
:100C90001C0200200000000010B5064C237843B968
:100CA000FFF7DAFF044B13B10448AFF300800123D0
:100CB000237010BD200200200000000050500008EA
:100CC00008B5054B1BB105490548AFF30080BDE8E9
:100CD0000840FFF7CFBF00BF000000002402002043
:100CE00050500008830730B546D08418844604E08D
:100CF00003F8011B9D0704D09C46A4456346F7D129
:100D000030BD013A0244A2EB0C02032A29D9CCB22D
:100D100004EB04240F2A04EB04442FD9A2F1100C95
:100D20002CF00F0C03F11005AC44C3E90044C3E9F7
:100D3000024410336345F8D112F00C0F02F00F0E8D
:100D400018D02EF0030C9C44AEF104051A4642F86C
:100D5000044B6245FBD125F0030404330EF003027B
:100D60002344002ACCD0C9B21A4403F8011B934291
:100D7000FBD130BD7246F4E70346C6E79646E0E78E
:100D800070B50F4B0F4DAB42A3EB050607D0B61065
:100D9000002455F8043B01349847A642F9D804F0E2
:100DA00057F9094D094B5E1BAB424FEAA60606D028
:100DB000002455F8043B01349847A642F9D870BD89
:100DC000DC550008DC550008DC550008E455000837
:100DD000704700BF704700BF024B13B1024800F0DC
:100DE00005B8704700000000F90D00080023014617
:100DF0001A46184600F014B838B5074D074C2C1B9E
:100E0000A41005D0013C55F8043D9847002CF9D1B9
:100E1000BDE8384004F022B9E8550008E455000860
:100E20002DE9F8431B4D0646286898460F46914623
:100E3000FFF7CEFF184B1C681CB3286865681F2D90
:100E400022DC4EB96B1C0235636044F82570FFF755
:100E5000C1FF0020BDE8F88304EB85010123C1F840
:100E60008890D4F88821AB401A43022EC4F8882118
:100E7000C1F80881E6D1D4F88C211A43C4F88C213A
:100E8000E0E7064C1C60D8E7FFF7A4FF4FF0FF3007
:100E9000E0E700BF08020020780300207C03002068
:100EA000014B1868704700BF0000002080B499B063
:100EB00000AF0346FB710B46BB7113467B710023E9
:100EC00087F85F3037E000231A4697F85F3002FA60
:100ED00003F303F08003002B05D04FF090434FF055
:100EE00080629A6104E04FF090434FF480629A610F
:100EF0004FF090434FF400629A610023BB6503E01A
:100F000000BFBB6D0133BB65BB6D032BF8D94FF040
:100F100090434FF000629A6100237B6503E000BFBD
:100F20007B6D01337B657B6D032BF8D997F85F30C0
:100F3000013387F85F3097F85F30072BC3D9002360
:100F400087F8533037E002231A4697F8533002FAF5
:100F500003F303F08003002B05D04FF090434FF0D4
:100F600080629A6104E04FF090434FF480629A618E
:100F70004FF090434FF400629A610023FB6403E05A
:100F800000BFFB6C0133FB64FB6C032BF8D94FF003
:100F900090434FF000629A610023BB6403E000BFFE
:100FA000BB6C0133BB64BB6C032BF8D997F853308F
:100FB000013387F8533097F85330072BC3D90023F8
:100FC00087F8473036E0FA7997F8473002FA03F3AA
:100FD00003F08003002B05D04FF090434FF0806268
:100FE0009A6104E04FF090434FF480629A614FF0B1
:100FF00090434FF400629A6100233B6403E000BF1A
:101000003B6C01333B643B6C032BF8D94FF09043AE
:101010004FF000629A610023FB6303E000BFFB6BAB
:101020000133FB63FB6B032BF8D997F8473001338F
:1010300087F8473097F84730072BC4D94FF09043D3
:101040004FF480629A61002387F83B3037E097F9CC
:10105000062097F83B3002FA03F303F08003002BDD
:1010600005D04FF090434FF080629A6104E04FF05A
:1010700090434FF480629A614FF090434FF40062C6
:101080009A6100237B6303E000BF7B6B01337B63CA
:101090007B6B032BF8D94FF090434FF000629A61BD
:1010A00000233B6303E000BF3B6B01333B633B6BBF
:1010B000032BF8D997F83B30013387F83B3097F88A
:1010C0003B30072BC3D94FF090434FF480629A61B5
:1010D000002387F82F3037E097F9052097F82F3055
:1010E00002FA03F303F08003002B05D04FF0904386
:1010F0004FF080629A6104E04FF090434FF48062B9
:101100009A614FF090434FF400629A610023BB62F2
:1011100003E000BFBB6A0133BB62BB6A032BF8D993
:101120004FF090434FF000629A6100237B6203E02E
:1011300000BF7B6A01337B627B6A032BF8D997F887
:101140002F30013387F82F3097F82F30072BC3D972
:101150004FF090434FF480629A61002387F8233068
:101160000EE00023FB6103E000BFFB690133FB617C
:10117000FB69032BF8D997F82330013387F8233024
:1011800097F823300F2BECD90023FB7634E00023B3
:101190001A46FB7E02FA03F303F08003002B05D00E
:1011A0004FF090434FF080629A6104E04FF090431B
:1011B0004FF480629A614FF090434FF400629A615D
:1011C00000237B6103E000BF7B6901337B617B69A6
:1011D000032BF8D94FF090434FF000629A6100233F
:1011E0003B6103E000BF3B6901333B613B69032B7B
:1011F000F8D9FB7E0133FB76FB7E072BC7D9002392
:10120000FB730CE00023BB6003E000BFBB6801334D
:10121000BB60BB68032BF8D9FB7B0133FB73FB7B03
:101220008B2BEFD900BF00BF6437BD465DF8047B50
:10123000704700BF30B5034683B00D4610481946CD
:1012400002F09CFFC8B13A2102F0CAFDA8B10130FA
:10125000044610F8013B202BFAD0092BF8D00023CC
:101260000A2201A92046019302F0ACFD019B9C4299
:1012700003D02860012003B030BD002003B030BD92
:101280001C060020000000002DE9704F2DED048B9E
:10129000A6B000F007FD4422002114A8FFF722FDAC
:1012A0000023CDE90F33CDE91133A44C1393A36D83
:1012B00043F08053A365A36D03F080530E934FF466
:1012C00000700E9B01F016FA602301221C9300238C
:1012D000CDE91A232823022501264FF01008219377
:1012E0000722042314A8CDE91E56CDE92223CDF808
:1012F00050802096249500F00BFE08B172B6FEE7F0
:1013000003464FF00F0A0FA84FF003090421CDE95F
:101310001133CDE90FA9139301F00AF98346002890
:1013200040D1E36C43F00103E364E36C169003F0F7
:1013300001030F934FF48072CDE917500F9B14A94E
:1013400001234FF09040CDE9142301F013FA4FF43C
:10135000406314A94FF09040CDE9156B1493179595
:1013600001F008FA764BC3E9015BC3E905BBC3E9A9
:1013700007BBC3F80CB0A26C42F00102A264A26CDD
:1013800002F001020D920D9A6E4A1A6018464FF053
:10139000800BC3F810B002F0A3F9694B024618B1F4
:1013A00072B6FEE772B6FEE718680192016821F096
:1013B000040101600521504600F0A8FC504600F0F1
:1013C000E1FCDFF8B0A1019ACAF80C20CAE90522B5
:1013D000CAE9072250465C4ACAF810B0CAF8088029
:1013E000CAF80450CAF8002002F07AF9834608B11E
:1013F00072B6FEE702460621112000F087FC11209C
:1014000000F0C0FCE16CDFF8708141F00201E164A2
:10141000E16C01F002010B910B99216E41F48041C6
:101420002166216ECDF85C9001F48041C0200C91C2
:1014300007230C99149014A944481893CDE9155624
:1014400001F098F93E4B424AC3F82880C8F874303E
:101450004FF4E133C8E9002340460C22C8F81420B9
:10146000C8E902BBC8E906BBC8F810B001F0A4FF88
:101470005A460521252000F049FC252000F082FC79
:10148000E06C40F00100E064E06C00F001000990C5
:101490000998A06D40F40030A065A06DCDF85C9077
:1014A00000F400300A900A98042014A9072314902D
:1014B0004FF090401893CDE9155601F05BF925489F
:1014C000CAF828004FF4E1330C22C0E9013B224B5B
:1014D0000360C0E9052BC0E903BBC0F81CB0C0F82D
:1014E00070A001F069FF5A460621262000F00EFC8C
:1014F000262000F047FC19494FF48072404602F064
:10150000CBF8002840F0F081DFED159A154AD37A28
:1015100003B1137A134AD37A03B1537A124A136888
:101520000133132B00F2CA8113609FED108A9FEDE7
:10153000109AB0EE690A01244BE000BF001002408F
:10154000700700205800024080000240000400485C
:1015500000380140B8070020004400401C0600206D
:10156000D8B35D3F1C07002010050020FFFFFF3EA1
:101570000000C8422807002040080020FFF796FC22
:101580000134C54BA3FB0430C00800EB4000A4EBC2
:101590008000FEF767FFBCA3D3E90023FEF7CCFF72
:1015A000BE4B0022FFF7F2F802460B46B8A1D1E984
:1015B0000001FEF709FEFFF7D1F908EE900AB0EE40
:1015C000680A02F0CDFEB0EE408AB0EE680A02F082
:1015D000FFFE28EE098A20EE090AFDEEC87A04F122
:1015E0003000CDED017AFDEEC07A092CCDED027A06
:1015F0009DF904209DF90810C0B2BFDD31200134EF
:10160000FFF754FC0D2CBCD1A54BDFEDA68A187852
:10161000FEF728FF9CA3D3E90023FEF78DFFA24B22
:10162000002204460D46FFF7B1F802460B4698A18A
:10163000D1E90001FEF7C8FDFFF790F908EE100AA6
:10164000B0EE480A02F08CFEF0EE407A67EEA87A1F
:10165000B0EE480AFDEEE77ACDED017A02F0B8FE71
:10166000924B9DF904B018788B4B20EE280AA3FB0F
:101670000023FDEEC07ADB0803EB4303CDED017AD6
:10168000A0EB83009DF904600796C0B2FEF7EAFE66
:101690007DA3D3E90023FEF74FFF804BDFED848A63
:1016A0000022FFF773F802460B46204629461446EF
:1016B0001D4600227F4BFFF769F802460B46204685
:1016C0002946FEF783FD02460B4671A1D1E90001D0
:1016D000FEF77AFDFFF742F908EE100AB0EE480A6D
:1016E00002F03EFEF0EE407A67EEA87AB0EE480ACD
:1016F000FDEEE77A86EAE678CDED017A9DF90430D1
:10170000019302F065FE20EE280ABBF1000FFDEE0A
:10171000C07A4FF00004D4BF4FF0FF330123CDED6A
:10172000027AA8EBE6788BEAEB79A642A9EBEB7993
:101730005FFA88F805939DF9083006935FFA89FAF5
:10174000D4BF4FF0FF330123C8F10002CDE90223DB
:10175000D146AAEB08062146254617E0029B500019
:1017600000B29842039BA2EB080C01EB030E06DDCE
:10177000059B1D446DB21FFA8CF20FFA8CF6814561
:10178000524402DD16B24FFA8EF1013404EB8402AA
:1017900004EBC20202EB8202D2B2332A6AD9AB4511
:1017A000B2B2DBD1079B8B42D8D1069A019B82EA69
:1017B000E278A8EBE27883EAE379002B5FFA88F815
:1017C0004FF00004A9EBE379C8F1000BD4BF4FF050
:1017D000FF330123A24204935FFA89FAD4BF4FF08A
:1017E000FF3301235A46AAEB0806C346D146984662
:1017F00021462546134615E0500000B29842A2EB60
:101800000B0C01EB080E06DD049A15446DB21FFAAD
:101810008CF20FFA8CF68145524402DD16B24FFA73
:101820008EF1013404EB840204EBC20202EB82026B
:10183000D2B2332A15D90198A842B2B2DCD10698A7
:101840008842D9D100221146E220FFF72FFB1A4A25
:1018500013680133632B13607FF658AE00231360C7
:1018600054E62A46D52003930291FFF71FFBDDE9DA
:101870000213E0E72A46D5200491FFF717FB0499ED
:101880008DE700BFAFF30080182D4454FB210940C1
:10189000182D4454FB21F93FABAAAAAA0000184016
:1018A0000D0200200000A04200003E400C0200207B
:1018B00000004842008076400C0500200B490C488F
:1018C0000B780133DBB200223B2B02600AD9074BB5
:1018D00008491A700B780133DBB20B2B02D9054B88
:1018E0001A7022E60B7020E672B6FEE70D020020A9
:1018F000100500200C0200207C4B02689A4200D0A8
:1019000070472DE9704F7A4D2B7886B003F0FF06B3
:101910009BB901230C464FF090404FF480712B701F
:1019200001F0BCF8631EFE2B0AD9724972484FF4CD
:10193000807201F0B1FE00232B7006B0BDE8708FFD
:10194000DFF8B0816D4908F80460404602F016FCEB
:10195000002800F0AD806A49404602F00FFC0028E4
:1019600000F0A6803A2102F03BFA002800F0A080A7
:10197000431C1C4613F8012B202AFAD0092AF8D060
:1019800000230A2203A92046039302F01BFA039BBB
:101990009C42064600F08C805A49564802F0EEFB05
:1019A000002800F085803A2102F01AFA0346002848
:1019B0007ED001331C4613F8012B202AFAD0092AC5
:1019C000F8D000230A2203A92046039302F0FAF973
:1019D000039B9C4280466BD04B49464802F0CEFBAD
:1019E000002865D03A2102F0FBF9034600285FD0B9
:1019F00001331C4613F8012B202AFAD0092AF8D00B
:101A000000230A2203A92046039302F0DBF9039B7B
:101A10009C4281464CD03D49364802F0AFFB00283D
:101A200046D03A2102F0DCF90346002840D00133C9
:101A30001C4613F8012B202AFAD0092AF8D04FF0BF
:101A4000000B0A2203A92046CDF80CB002F0BAF927
:101A5000039B9C4282462BD02D486946FFF7EAFB48
:101A600030B32C4801A9FFF7E5FB08B32A4802A9C7
:101A7000FFF7E0FBE0B15B46009A9DF80810039683
:101A800069F307036AF30F2362F31743019AADF872
:101A9000108062F31F630122CDF812308DF816100A
:101AA00003AB8DF8172093E807001C4B83E8070071
:101AB0001B4E3378002B7FF438AF0E48FFF760F8E9
:101AC000431EFE2B04463FF630AF01230246094970
:101AD00014483370FEF7ACFF12491348621C0A2306
:101AE00092B20B5500F0E6FF1FE700BF003801403F
:101AF000190600201C06002040080020685000083D
:101B00007850000880500008885000089050000865
:101B100098500008A0500008AC5000081C07002096
:101B20001405002018050020B8070020044B0268A7
:101B30009A4200D07047034B00221A70704700BFD2
:101B4000004400401405002008B50B4A0368934286
:101B500007D00A4A934200D008BD094B00221A70F0
:101B600008BD084908484FF4807201F095FD00282F
:101B7000F2D072B6FEE700BF0038014000440040DA
:101B8000140500201C06002040080020704700BFFC
:101B9000FEE700BFFEE700BFFEE700BFFEE700BFB5
:101BA000704700BF704700BF704700BF08B500F026
:101BB00089F8BDE8084000F00FB900BF014801F006
:101BC0003FB800BF40080020014801F039B800BF0D
:101BD000B8070020014801F085BE00BF7007002053
:101BE000014801F07FBE00BF28070020034AD2F859
:101BF000883043F47003C2F88830704700ED00E08D
:101C0000DFF834D0FFF7F2FF0C480D490D4A0023EE
:101C100002E0D458C4500433C4188C42F9D30A4AA1
:101C20000A4C002301E013600432A242FBD3FFF709
:101C3000A7F8FFF729FBFEE70000012000000020C5
:101C40001C020020E855000820020020CC080020DB
:101C5000FEE70000704700BF38B50F4B1B780BB98B
:101C6000012038BD0D494FF47A720546B2FBF3F3FB
:101C70000868B0FBF3F000F093F804460028EFD1B9
:101C80000F2DEDD8024629464FF0FF3000F03EF808
:101C9000034B20461D6038BD1402002010020020B6
:101CA0001802002010B5032000F01EF80F20FFF7E7
:101CB000D3FF10B10124204610BD0446FFF7CAFF30
:101CC000204610BD034A044B11681B780B44136077
:101CD000704700BFC808002014020020014B18689C
:101CE000704700BFC80800200749CA6803024FF6C2
:101CF000FF0003F4E0630240134343F0BF6343F487
:101D00000033CB60704700BF00ED00E01B4BDB6889
:101D1000C3F3022300B5C3F1070EBEF1040F03F1B4
:101D2000040C28BF4FF0040EBCF1060F1CD9A3F120
:101D3000030C4FF0FF3303FA0CF322EA03024FF0D7
:101D4000FF3303FA0EF321EA030303FA0CF3134300
:101D50001B010028DBB20ADB00F1604000F56140A6
:101D600080F800335DF804FB00229446E7E7044A5C
:101D700000F00F00024413765DF804FB00ED00E074
:101D8000FCEC00E0002807DB044A4109012300F0D5
:101D90001F00834042F82130704700BF00E100E09F
:101DA0000138B0F1807F01D30120704710B44FF0AB
:101DB000E023074C58614FF0F00C84F823C0002258
:101DC000072110469A615DF8044B1961704700BF06
:101DD00000ED00E0704700BF08B5FFF7FBFF08BD4E
:101DE00030B5204DAB6DDB0083B004461AD500F052
:101DF00079FCB0F5007F27D0802C2CD82FD0A4F10F
:101E00007004B4FA84F4640917490B6823F00703DB
:101E100023430B60086800F00700001B18BF012077
:101E200003B030BDAB6D43F08053AB65AB6D03F0D9
:101E300080530193019B00F055FCAB6DB0F5007F22
:101E400023F08053AB65D7D1802C06D9A02C8CBF52
:101E500002240124D8E70324D6E70024D4E702248F
:101E6000D2E700BF0010024000200240244A9368DD
:101E7000D26813F00C0307D00C2B34D0042B3AD0CB
:101E8000082B36D0002070471D4A1168090754BF3F
:101E9000D2F8942012681B4954BFC2F30322C2F344
:101EA000031251F82200002BEDD0154BDB6803F034
:101EB0000303022B21D0144A032B08BF1046104BFA
:101EC000D968DA68DB68C3F34163C2F30622C1F361
:101ED0000211013300FB02F201315B00B2FBF1F2AF
:101EE000B2FBF3F0704702F00302012ACCD00020CD
:101EF000DBE705487047054870470448DFE700BF47
:101F000000100240B850000800127A000024F400CB
:101F1000002800F039822DE9F043A94A036895684A
:101F2000D668D90683B0044605F00C0506F0030612
:101F30001A462FD5002D00F0F1800C2D00F0EB801B
:101F4000A3699F4F002B00F0AE813B6843F0010373
:101F50003B60FFF7C3FE804606E0FFF7BFFEA0EB45
:101F60000800022800F29B813B689A07F5D53B6880
:101F700043F008033B603B68226A23F0F0031343FD
:101F80003B607B68E26923F47F4343EA02237B6082
:101F900023681A46DF0729D5082D00F036810C2D5D
:101FA00000F030816368B3F5803F00F09081B3F5B5
:101FB000A02F00F01082824F3A6822F480323A60FB
:101FC0003A6822F480223A60002B40F08581FFF7C6
:101FD00085FE804606E0FFF781FEA0EB080064283E
:101FE00000F25D813B689803F5D42268910713D510
:101FF000042D40F0D580724B1B685A0503D5E36869
:10200000002B00F0FB806E4A2169536823F0F853DF
:1020100043EA016353602268110719D56369684E6A
:10202000002B00F0FB80D6F8943043F00103C6F893
:102030009430FFF753FE074605E0FFF74FFEC01B45
:10204000022800F22C81D6F894309A07F5D5226840
:1020500057073FD55A4B9A6DD60000F169819A6DAA
:1020600042F080529A659B6D03F080530193019B6F
:102070000126544F3B68D80540F10081A368012B2D
:1020800000F0E080052B00F0B3814D4FD7F8902091
:1020900022F00102C7F89020D7F8902022F0040225
:1020A000C7F89020002B40F0D480FFF717FE41F2D4
:1020B0008839804606E0FFF711FEA0EB080048458E
:1020C00000F2ED80D7F890309B07F4D4002E40F05A
:1020D00076812268900618D5636A394E002B00F08D
:1020E0005981D6F8983043F00103C6F89830FFF7CD
:1020F000F5FD074605E0FFF7F1FDC01B022800F2E1
:10210000CE80D6F898309907F5D5A36A002B40F019
:10211000F380002073E0012E7FF412AF284B1B6880
:102120009B0768D4264B206A1A68170756BFD3F856
:1021300094301B681B0903F0F003984200F20C81F5
:102140001F4B1A6842F008021A601A6822F0F00267
:1021500002431A605A68E16922F47F4242EA01228E
:102160005A60002D00F03181FFF780FE144B164AB3
:102170009B68C3F30313D35C144A03F01F0320FAD4
:1021800003F31068124A1360FFF766FD002836D18A
:102190002268D10713463FF502AF91077FF53CAFA8
:1021A0000C2D00F0F380E368054E002B00F0C28098
:1021B000336843F480733360FFF790FD07460EE009
:1021C0000010024000700040F0500008180200208B
:1021D00010020020FFF782FDC01B02285FD8336881
:1021E0005B05F7D57368226923F0F85343EA02636D
:1021F0007360226810E7A369002B93D1012003B01C
:10220000BDE8F083032E7FF4CDAEA84A1268900398
:1022100002D56268002AF1D01A46BEE7D6F894309B
:1022200023F00103C6F89430FFF758FD074604E099
:10223000FFF754FDC01B022831D8D6F894309B0715
:10224000F6D404E7994AD2F8903043F00103C2F87B
:102250009030FFF743FDDFF85482074641F288399A
:1022600004E0FFF73BFDC01B484518D8D8F8903074
:102270009A07F6D5002E3FF42CAFA0E03B6843F45C
:1022800080733B60FFF72AFD80463B68D9053FF528
:10229000F5AEFFF723FDA0EB08000228F5D90320D7
:1022A00003B0BDE8F0833B6823F001033B60FFF718
:1022B00015FD804605E0FFF711FDA0EB08000228A0
:1022C000EDD83B689B07F6D423681A4662E6774A46
:1022D000136843F480331360FFF700FDDFF8CC810F
:1022E000074604E0FFF7FAFCC01B6428D7D8D8F8EB
:1022F00000309B03F6D578E6022B00F087800C2D8A
:102300003FF47CAF694C236823F080732360FFF7B0
:10231000E5FC054604E0FFF7E1FC401B0228BED8BF
:1023200023689B01F7D4E268614B1340E360F0E659
:1023300000269EE6336823F480733360FFF7CEFCFB
:10234000074604E0FFF7CAFCC01B0228A7D8336881
:102350005805F7D422685FE6FFF742FD00287FF4B6
:102360004DAF524B1A6842F008021A601A68216A8F
:1023700022F0F0020A431A605A68E16922F47F42AF
:1023800042EA01225A60EFE601207047022E7FF4F4
:102390000AAF30E6D6F8983023F00103C6F898303B
:1023A000FFF79CFC074605E0FFF798FCC01B0228DE
:1023B0003FF675AFD6F898309A07F5D4A5E63B4AB4
:1023C000936D23F08053936583E6FFF709FD0028A2
:1023D0003FF4CAAE12E703F18043A3F53C331A6819
:1023E00042F480221A601A6842F480321A6073E75D
:1023F0002E4BD3F8902042F00402C3F89020D3F87B
:10240000902042F00102C3F8902022E7274EE26AB2
:10241000F36803F0030191424ED00C2D3FF4EEAE71
:10242000224D2B685B013FF5E9AE2B6823F08073EA
:102430002B60FFF753FC064605E0FFF74FFC801BBF
:1024400002283FF62CAF2B689F01F6D4E968194BA0
:10245000E26A206B0B401343D4E90D1243EA0123D7
:1024600043EAC263D4E90F120138490843EA001372
:102470000139520843EA4153013A43EA4263EB60AF
:102480002B6843F080732B60EB6843F08073EB6044
:10249000FFF724FC054D04462B6898013FF539AE43
:1024A000FFF71CFC001B0228F6D9F8E600100240DA
:1024B000FCFFEEFE8C809D01216B03F07002013960
:1024C000B2EB011FA9D1616B03F4FE42B2EB012F05
:1024D000A3D1A16B03F07842B2EBC16F9DD1E26B47
:1024E000520803F4C001013AB1EB425F95D1226C6E
:1024F000520803F0C063013AB3EB426F8DD13368E9
:1025000099013FF506AE336843F080733360F3689A
:1025100043F08073F360FFF7E1FB044633689A01F0
:102520003FF5F7ADFFF7DAFB031B022BF6D9B6E652
:10253000002800F0A080544A136803F007038B4280
:102540002DE9F0410D4604460CD2136823F0070331
:102550000B431360136803F007038B4202D0012082
:10256000BDE8F0812368990703F0010270D5474E5A
:10257000A068B16801F0F001884204D9B16821F087
:10258000F0010143B16032B36268404B032A1B681B
:1025900065D0022A6CD0002A71D19E07DFD53B4E50
:1025A000B36823F003031343B360FFF797FB41F2D3
:1025B0008838074604E0FFF791FBC01B40455CD814
:1025C000B368626803F00C03B3EB820FF3D12368A6
:1025D000990706D5A0682D498A6802F0F002824268
:1025E00040D829490A6802F00702AA4209D90A68B4
:1025F00022F007022A430A600A6802F00702AA4290
:10260000ADD15A0706D52149E0688A6822F4E06214
:1026100002438A601B0707D51C4A2169936823F48B
:10262000605343EAC1039360FFF720FC174A184C3C
:1026300092681849C2F303120346A25C164802F0DE
:102640001F02D340BDE8F04100680B60FFF704BBF8
:10265000002AC6D062680D4B032A1B6899D19B01E2
:102660009DD47CE78A6822F0F00202438A60B8E7D2
:102670009F0394D473E701207047032070E7580547
:102680007FF56DAF8BE700BF0020024000100240D5
:10269000F05000081002002018020020054B064AE6
:1026A0009B680649C3F302230868D35C03F01F0349
:1026B000D840704700100240E85000081002002087
:1026C000054B064A9B680649C3F3C2230868D35CDE
:1026D00003F01F03D840704700100240E850000884
:1026E00010020020024B186800F4C060704700BF61
:1026F00000700040B0F5007F0ED01B4A136803F451
:10270000C063B3F5806F05D0136823F4C06343F44E
:10271000806313600020704713490B6803F4C063A3
:10272000B3F5007FF6D00B68104A23F4C06343F47E
:1027300000730B6013680E4A322000FB03F34869F4
:10274000A2FB03239B0C400503F1010306D54A6954
:10275000520503F1FF3301D5002BF8D1024B5B6921
:102760005B05D7D5032070470070004010020020A1
:1027700083DE1B430B68002B00F086812DE9F04FB0
:10278000B0F1904F85B04FF000024FF0010B00F018
:102790004481DFF804C3009169E0032F0BD0009956
:1027A000D0F80C80896808EA060801FA04FE4EEAAF
:1027B000080EC0F80CE007FA04F407683E40344302
:1027C00015F4403F04604DD0B04E346E44F0010427
:1027D0003466346E04F001040394039C22F0030475
:1027E00004F1804402F003070F2104F58034BF0098
:1027F00001FA07FEA649A668884226EA0E0600F0FE
:102800003D81A44988420CBF4FF0020E4FF0070EE5
:102810000EFA07F73E43A660DCF808406FEA0A06A6
:10282000EF0254BF34404AEA0404CCF80840DCF814
:102830000C40A90254BF34404AEA0404CCF80C40CE
:10284000DCF80440AF0354BF34404AEA0404CCF837
:102850000440DCF80040E90354BF34404AEA040471
:10286000CCF80040013233FA02F400F0F8800BFAA1
:1028700002FE1EEA030AF5D000994D6805F0030731
:102880005400032107F1FF3801FA04F6B8F1010FF3
:102890006FEA060681D80099D0F80890C96809EA5D
:1028A000060901FA04F848EA0908C0F80880D0F8D7
:1028B0000480009928EA0E08C5F3001E0EFA02FEF5
:1028C0004EEA080EC0F804E0D0F80C80896808EAE7
:1028D000060801FA04FE4EEA080E022FC0F80CE0CA
:1028E0007FF469AF00994FEAD208096902F0070E38
:1028F00000EB88084FEA8E0E01FA0EF1D8F820900E
:1029000001910F2101FA0EFE019929EA0E0941EA0F
:10291000090EC8F820E04EE7D0F80890CD680AEA22
:10292000090905FA07F848EA0908C0F80880D0F84C
:10293000048028EA0E08C6F3001E0EFA02FE4EEAD4
:10294000080EC0F804E0D0F80C808D680AEA080888
:1029500005FA07FE4EEA080E022CC0F80CE019D169
:102960004FEAD20E0D694FEA8E0E02F007080EF103
:10297000904E4FEA880805FA08F5DEF82090009599
:102980000F2505FA08F8009D29EA080945EA090813
:10299000CEF82080BC40076807EA0A073C4316F4DB
:1029A000403F046035D0394F3C6E44F001043C6632
:1029B0003C6E04F001040394039C22F0030404F130
:1029C000804404F5803402F00307D4F808E00F25B2
:1029D000BF0005FA07F72EEA0707A7602E4CF5029D
:1029E000A4686FEA0C073DD43C402B4DAC60EC680A
:1029F000B50240D43C40284DEC606C68B50337D438
:102A00003C40254D6C602C68F5032ED43C40224D93
:102A10002C60013233FA02F421D00BFA02FE13EAE1
:102A20000E0CF6D04E685700032505FA07F806F09D
:102A300003046FEA080A04F1FF38B8F1010F7FF6CA
:102A40006BAF032CA6D0D0F80C808D680AEA08087A
:102A500005FA07FE4EEA080EC0F80CE09AE705B04A
:102A6000BDE8F08F4CEA0404BFE744EA0C04CEE76B
:102A700044EA0C04C5E744EA0C04BCE74FF0010E3D
:102A80000EFA07F73E43C6E6704700BF001002404B
:102A9000000400480008004800040140436901EABE
:102AA000030221EA030141EA02418161704700BF4C
:102AB000704700BF70B5C56F202D32D1044671B389
:102AC000134662B30026A0F85220A0F85020C1643B
:102AD000C0F88460006F2122E26758B122688663E3
:102AE000114EC662114E0663114E4663283200F045
:102AF00063FE80B922684023136202F1080353E8A1
:102B0000003F43F0800302F1080040E80031002953
:102B1000F3D1002070BD1023C4F88430E567012094
:102B200070BD022070BD00BF352B0008792B000856
:102B30008D2B000808B50368806A1B689B0615D4B6
:102B4000026802F1080353E8003F23F0800302F11A
:102B5000080040E800310029F3D152E8003F43F07B
:102B6000400342E800310029F7D108BDFEF7DEFF3F
:102B700008BD00BF704700BF08B5806AFFF7FAFFC5
:102B800008BD00BF704700BF704700BF806A036880
:102B9000C16F10B5D0F880409A68120601D521297E
:102BA0000DD09A68520601D5222C13D0D0F884306B
:102BB00043F01003C0F88430FEF7C6FF10BD53E8A1
:102BC000002F22F0C00243E800210029F7D1202283
:102BD000C267E6E753E8002F22F4907243E8002131
:102BE0000029F7D103F1080252E8002F22F0010278
:102BF00003F1080444E800210029F3D1026E012A00
:102C000006D000232022C0F8802083660366CDE72B
:102C100053E8002F22F0100243E800210029F0D0F1
:102C200053E8002F22F0100243E800210029EFD1E1
:102C3000E7E700BF08B5806AFEF786FF08BD00BF62
:102C40000368DA69196840F60F0C12EA0C0F70B5C8
:102C50009D68044616D1960602D58E0600F1F780CF
:102C6000206E012800F0A980D60202D5680200F18A
:102C7000F280160600F19680500602D54A0600F151
:102C8000818070BD15F0010640F0BF80AF48014261
:102C9000E6D0D50710D5C80540F11F810120186284
:102CA000D4F8840040F00100C4F88400900740F19B
:102CB000F680002E40F0AD80550740F1F6801607F3
:102CC00000F1008115050AD5480108D54FF40060D0
:102CD0001862D4F8840040F02000C4F88400D4F8CE
:102CE00084000028CDD0920602D58E0600F1ED803A
:102CF000D4F884109A6801F0280102F0400252EAE8
:102D0000010500F05881194651E8002F22F4907215
:102D100041E8002019460028F6D103F1080252E8E4
:102D2000002F22F0010203F1080040E800210029F1
:102D3000F3D1226E012A00F0968000222021C4F8EF
:102D4000801022669968A2664D0640F1B78003F1B3
:102D5000080252E8002F22F0400203F1080040E888
:102D600000210029F3D1606F002800F0A780784B84
:102D7000836300F093FD002883D0606FBDE870404E
:102D8000836B184753E8002F22F0400243E80021EC
:102D90000029F7D120220023E267E3662046FEF7F0
:102DA000C5FE70BD0D067FF567AFE36E002B3FF4E7
:102DB00068AF2046BDE870401847D0067FF554AF95
:102DC000CE067FF551AF10221A629968B4F85820E8
:102DD000480640F18680606F0568696889B20029FD
:102DE00000F0EF80914280F0EC80A4F85A1029683E
:102DF000890640F1AF8002236366B4F85A10511A75
:102E0000204689B2FEF778FD70BDD50742D4900701
:102E10003BD502201862D4F88400560740F0040025
:102E2000C4F8840033D504201862D4F88400150750
:102E300040F00200C4F884007FF544AF0820186217
:102E4000D4F8840040F00800C4F884003AE7836EA8
:102E5000002BAFD115E74FF4801220461A62BDE86F
:102E6000704000F017BC53E8002F22F0100243E836
:102E7000002100293FF461AF53E8002F22F0100237
:102E800043E800210029EED157E75607CBD41007BD
:102E9000D4D417E7C8053FF501AF9507B9D450075B
:102EA00003D5002E3FF40BAFBDE710077FF50AAF47
:102EB00001F0200030433FF405AFBFE72046FEF7A6
:102EC00043FE70BD8D06B9D4FCE6A26E002A3FF425
:102ED0000FAF2046904723680AE795073FF5ECAE11
:102EE000DDE7B4F85A00B4F85A1089B280B200296C
:102EF0003FF4C7AE121A91B200293FF4C2AE53E8B4
:102F0000002F22F4907243E800200028F7D103F14B
:102F1000080252E8002F22F0010203F1080545E8FB
:102F200000200028F3D12022C4F88020A06620666B
:102F300053E8002F22F0100243E800200028F7D1C8
:102F4000022363662046FEF7D7FC70BD2001000413
:102F5000352C000853E8002F22F4807243E800214A
:102F60000029F7D103F1080252E8002F22F00102F4
:102F700003F1080545E800210029F3D103F1080217
:102F800052E8002F22F0400203F1080545E8002135
:102F90000029F3D12022C4F88020216653E8002FB5
:102FA00022F0100243E800210029F7D100F050FC84
:102FB000B4F858201FE72046FEF7C6FDC4F8845039
:102FC00070BD91427FF45DAE2B689B06B8D470BD96
:102FD00008B50346806A01224266026E012A12D1B8
:102FE000B0F858101B684A08A0F85A205B689BB2DA
:102FF000994228BFA0F85A30B0F85A30C91A89B29D
:10300000FEF77AFC08BDFFF7BFFD08BD10B50468E8
:10301000806A23689B0626D4036853E8002F22F4B5
:10302000807243E800210029F7D103F1080252E839
:10303000002F22F0010203F1080C4CE800210029C6
:10304000F3D103F1080252E8002F22F0400203F10D
:10305000080C4CE800210029F3D12022C0F8802080
:10306000026E012A13D000234366036E012B1FD189
:103070006368B0F858109BB2994288BFA0F85A30E4
:10308000B0F85A30C91A89B2FEF736FC10BD53E8C1
:10309000002F22F0100243E800210029E3D053E87A
:1030A000002F22F0100243E800210029EFD1DAE7D7
:1030B000FFF768FD10BD00BF436A1A0710B406D5BC
:1030C0000168446B4A6822F4004222434A60DC07EC
:1030D00006D50168846A4A6822F4003222434A60B5
:1030E000990706D50168C46A4A6822F480322243EF
:1030F0004A605A0706D50168046B4A6822F48022A8
:1031000022434A60DC0606D50168846B8A6822F493
:10311000805222438A60990606D50168C46B8A688A
:1031200022F4005222438A605A0609D50168046CD1
:103130004A6822F480122243B4F5801F4A600BD003
:103140001B0606D50268816C536823F400230B43E9
:1031500053605DF8044B70474A68446C22F4C00227
:1031600022434A60ECE700BF38B500230446C0F8AC
:103170008430FEF7B3FD21680B681B0705460ED4AB
:103180000B685A072FD400232022E2671846C4F8A0
:10319000802023666366002384F8783038BDCB69CD
:1031A0009802EDD40BE01A68520705D5DA691007CA
:1031B0004AD4DA69120575D4DB699802E0D4FEF7C7
:1031C0008DFD2368421BB2F1007F1946EBD353E813
:1031D000002F22F0800243E800210029F7D12023AC
:1031E000E3670320D7E7CB695B02CCD40DE01A6814
:1031F000500707D5DA69110700F18280DA691205F4
:1032000000F1AC80DB695B02BDD4FEF767FD431BB8
:10321000B3F1007F2368EAD353E8002F22F49072C1
:1032200043E800210029F7D103F1080252E8002FFA
:1032300022F0010203F1080040E800210029F3D147
:103240002023C4F88030CCE708221A6253E8002F0C
:1032500022F4907243E800210029F7D103F108021B
:1032600052E8002F22F0010203F1080040E800219B
:103270000029F3D1226E012A0BD000222020082140
:10328000C4F88000A266226684F87820C4F884100E
:103290009DE753E8002F22F0100243E800210029A7
:1032A000F7D1EAE74FF400621A6253E8002F22F4E4
:1032B000907243E800210029F7D103F1080252E897
:1032C000002F22F0010203F1080040E8002100294C
:1032D000F3D1226E012A0AD000222021C4F88010E6
:1032E000A266226684F87820C4F884106FE753E859
:1032F000002F22F0100243E800210029F7D1EBE76C
:1033000008221A6253E8002F22F4907243E8002149
:103310000029F7D103F1080252E8002F22F0010240
:1033200003F1080040E800210029F3D1226E012AB0
:103330000BD0002220200821C4F88000A26622665B
:1033400084F87820C4F8841066E753E8002F22F050
:10335000100243E800210029F7D1EAE74FF40062A8
:103360001A6253E8002F22F4907243E800210029EA
:10337000F7D103F1080252E8002F22F0010203F115
:10338000080040E800210029F3D1226E012A0AD06A
:1033900000222021C4F88010A266226684F87820DA
:1033A000C4F8841038E753E8002F22F0100243E8F5
:1033B00000210029F7D1EBE7002800F0B68038B5EE
:1033C000C36F0446002B78D02568626A2423E36724
:1033D0002B6823F001032B60002A6AD1D4E9041280
:1033E000A36828680B431343E1697A4A0B43024000
:1033F00013432B606B68E26823F440531343764A0F
:103400006B609542A369AA6832D0206A22F43062C8
:1034100003431343714AAB60954213D0704B9D42F6
:1034200042D103F5E633D3F8883003F00C030C2BBC
:103430003AD8DFE803F099393939723939394739DF
:1034400039396C00674BD3F8883003F00303022B43
:1034500038D0032B5BD0012B5FD0B1F5004F00F0CB
:103460008B80FFF72DF988BBC4E91A0022683DE084
:1034700022F4306213435B49AB60D1F8883003F427
:103480004063B3F5006F58D051D8002B00F0918005
:10349000FEF7ECFC0028E7D0626802EB42038342AF
:1034A00002D8B0EB023F4AD90023C4E91A33012005
:1034B00038BD2046FFF700FE90E780F87830FFF730
:1034C000F7FA81E7B1F5004F7FD0474863684FF6C0
:1034D000EF7200EB5300B0FBF3F0A0F11003934246
:1034E000E2D822680023D060C4E91A33536823F479
:1034F00090435360936823F02A039360136843F06A
:10350000010320461360BDE83840FFF72DBEB1F53A
:10351000004F5CD04FF40040D8E7B1F5004F51D0D8
:10352000FEF7A4FC0028D1D19EE701207047B3F537
:10353000406FB9D14FF40040AEE72B48ACE700250F
:1035400053084FF4807C2946E0FB0C3118462B468B
:10355000FDF754FA254BA0F540729A42A4D8226890
:10356000D060C4E91A55C1E7B1F5004F27D0FFF785
:1035700095F80028AAD177E7FFF7A2F800283FF4D2
:1035800073AF430062684FF6EF7103EB5203B3FB76
:10359000F2F3A3F110028A4286D823F00F0189B218
:1035A0002268C3F342030B430021D360C4E91A111C
:1035B0009CE7FFF773F800283FF456AF6CE7FFF77E
:1035C0006DF8DBE7FEF752FCD8E7094BDAE74FF47A
:1035D0008033D7E7F369FFEF0080004000380140F7
:1035E00000440040001002400024F400FFFC0F00E3
:1035F0000048E80138B5134600252222C0F884505F
:1036000004464165A0F85830C0F88020406F60B192
:103610000A46216885631C4DC5621C4D05631C4D1F
:103620004563243100F0C8F828BB23694BB12368F7
:1036300053E8002F42F4807243E800210029F7D1BB
:1036400000E0236803F1080252E8002F42F0010273
:1036500003F1080040E800210029F3D103F108023A
:1036600052E8002F42F0400203F1080141E8002037
:103670000028F3D138BD10222023C4F88420012073
:10368000C4F8803038BD00BF0D300008D12F0008CD
:103690008D2B0008704700BF70B5D0F88060202ED9
:1036A00003D101B11AB9012070BD022070BD012300
:1036B0000366002343660446FFF79CFF0028F3D10E
:1036C000236E012BEFD122681023136252E8003FD2
:1036D00043F0100342E800310029F7D170BD00BF6C
:1036E000002850D02E4A034600689042F0B441D9D9
:1036F0002C492D4A2D4C0144A2FB012109098900C6
:10370000022283F8252002681C646FF30E125964AC
:103710000260D3E902521F6906682A433A435F698F
:103720003A439F693A43DF693A431F6A3A43324357
:10373000B5F5804F026014D0586801F01C010F22CB
:103740008A4088401A498C426FEA02021DD0D1F8A3
:10375000A8442240C1F8A824D1F8A8240243C1F803
:10376000A82400200122D86383F8240083F82520B0
:10377000F0BC70470F490C4A0D4C0144A2FB0121DB
:1037800009098900BCE701207047D4F8A8100A4055
:10379000C4F8A820D4F8A8200243C4F8A820E0E781
:1037A00007040240F8FBFDBFCDCCCCCC00040240A6
:1037B00000000240F8FFFDBF844690F82400012875
:1037C0003AD030B59CF825E0012086458CF82400DD
:1037D0005FFA8EF506D0002380228CF82430CCF8D6
:1037E0003C2030BD02208CF825000020CCF83C00A5
:1037F000DCF84400DCF8004000F01C008540206844
:1038000020F001002060DCF8400045606360DCF8D7
:103810000830102BDCF830300BBFA260A160E160F3
:10382000E2605BB1236843F00E032360236843F03A
:1038300001030020236030BD02207047236823F07D
:1038400004032360236843F00A032360EEE700BF0C
:1038500040B190F82530022B06D004220023C26329
:1038600080F82430012070470268436C116821F011
:1038700001011160116821F00E0111604FF0010C7F
:10388000026C03F01C030CFA03F35360002380F86E
:1038900025C080F824301846704700BF90F82520D6
:1038A000022A03D00422C263012070470168426CDF
:1038B00010B50C6824F001040C600C6824F00E04B0
:1038C0000C6002F01C02046C012101FA02F2626039
:1038D000826B80F82510002480F8244002B19047C4
:1038E000002010BD70B4436C066C056831682C680C
:1038F00003F01C0304229A400A420ED014F0040F75
:103900000BD02B689B0603D42B6823F004032B6099
:10391000036B7260FBB170BC184702229A400A42E6
:103920001BD014F0020F18D02B68990606D42B6810
:10393000012123F00A032B6080F82510134B9D42D0
:1039400096BF134BC3F884235A60C36A002280F8E1
:103950002420002BDFD170BC704708229A400A4215
:10396000F9D02207F7D52A68416B22F00E022A60AF
:10397000012202FA03F300247360C26380F824403A
:1039800080F825200029E6D070BC0847800002405E
:10399000000002402DE9F047089D0F4604468C4682
:1039A000002B48D18A42164661D9B2FA82F34BB154
:1039B000C3F1200201FA03FC20FA02F29E4042EA1F
:1039C0000C0C9C404FEA164EB7B2BCFBFEF1220C29
:1039D0000EFB11CC42EA0C4201FB07F0904209D9E0
:1039E000B21801F1FF3C80F0EE80904240F2EB8093
:1039F00002393244121AA4B2B2FBFEF00EFB1022BE
:103A000044EA024400FB07F7A74209D9341900F140
:103A1000FF3280F0DA80A74240F2D7803444023887
:103A200040EA0140E41B00211DB1DC400023C5E950
:103A30000043BDE8F0878B4206D90DB1C5E900010E
:103A400000210846BDE8F087B3FA83F1002948D188
:103A5000BB4202D3824200F20781841A67EB030261
:103A600001209446002DE4D0C5E9004CE1E7002A8E
:103A700000F09280B2FA82F3002B40F0A8808A1AFC
:103A80004FEA164E1FFA86FC0121200CB2FBFEF70E
:103A90000EFB172240EA02420CFB07F0904207D9C6
:103AA000B21807F1FF3802D2904200F2E280474696
:103AB000121AA4B2B2FBFEF00EFB102244EA02443A
:103AC0000CFB00FCA44507D9341900F1FF3202D2E7
:103AD000A44500F2CB801046A4EB0C0440EA07405A
:103AE000A2E7C1F120068B4022FA06FC4CEA030C47
:103AF00007FA01F420FA06F3F7404FEA1C49234382
:103B000000FA01F81FFA8CFEB7FBF9F01C0C09FB58
:103B1000107744EA074400FB0EF7A74202FA01F2CD
:103B20000AD91CEB040400F1FF3A80F09B80A74205
:103B300040F2988002386444E41B9FB2B4FBF9F36E
:103B400009FB134447EA044403FB0EFEA64509D9CA
:103B50001CEB040403F1FF3780F08280A6457FD977
:103B6000023B644443EA0040A4EB0E04A0FB02E7DE
:103B7000BC427346B94663D360D05DB1B8EB030273
:103B800064EB090404FA06F622FA01F31E43CC4062
:103B9000C5E9006400214CE76208480842EAC171A7
:103BA0000B0C43EA00438AB242EA0342B3FBF6F14C
:103BB000E407B4463746B6461F23B0FBF6F0D21BE7
:103BC00041EA004161E7614614E7104628E7C3F186
:103BD000200120FA01F29E4027FA01F19F403A436A
:103BE0004FEA164E1FFA86FCB1FBFEF70EFB1710CC
:103BF000110C41EA004107FB0CF8884504FA03F474
:103C00003AD9711807F1FF3001D288451FD8A1EBCE
:103C10000801B1FBFEF808FB0CF70EFB181192B27D
:103C200042EA0142BA422FD2B21808F1FF31C6D29D
:103C3000BA42C4D2A8F102013244C0E7F0459CD296
:103C4000BEEB020367EB0C070138B94695E7A6EB1C
:103C500008084144B81EB1FBFEF808FB0CF7DCE78E
:103C60003B467FE7504667E70846FBE634440238A8
:103C700032E7023F32441BE7A1EB08013846B1FBB3
:103C8000FEF808FB0CF7C8E7414698E7242B2DE91E
:103C9000F84F43D8012B41D0804649481F468E46F5
:103CA00075461EF801BB10F80B4014F00804F7D15C
:103CB000BBF12D0F6FD0BBF12B0F08BF9EF800B0EA
:103CC0006FF0004908BF05F1020E73BBBBF1300F66
:103CD0004BD00A273B460025B9FBF7F6284607FBE1
:103CE000169A05E03AD007FB00C001251EF801BB7B
:103CF000ABF1300CBCF1090F06D9ABF1410CBCF1B2
:103D0000190F19D8ABF1370C63451EDDB5F1FF3F34
:103D1000ECD08642E6D24FF0FF35E7E7FDF7C0F87A
:103D2000162303600020BDE8F88F102BD3D1BBF120
:103D3000300F23D01F46CEE7ABF1610CBCF1190F59
:103D400003D8ABF1570C6345E0DC6B1C2BD054B9A6
:103D5000002AE8D085BB1160BDE8F88FE245C2DAE1
:103D60004FF0FF35C2E74042F2E79EF8003003F023
:103D7000DF03582B08D008273B46ACE79EF800002D
:103D800000F0DF005828D5D110279EF801B03B463F
:103D90000EF1020E9FE79EF800B04FF0004905F1CA
:103DA000020E012491E72223C8F8003032B10EF14F
:103DB000FF3148461160CFE78146F8E74846B2E751
:103DC0000151000810B4054C8446134620685DF884
:103DD000044B0A466146FFF759BF00BF00000020B0
:103DE00011F0FF01034600F0030239D08ABB0268DC
:103DF00010B501EB012E0EEB0E4E8EEA0204A2F17D
:103E0000013323EA0203A4F1013222EA040213433C
:103E100013F0803F0FD150F8044F84EA0E0CA4F148
:103E20000133ACF1013223EA040322EA0C0213430A
:103E300013F0803FEFD0037823B936E010F8013F4C
:103E4000002B32D09942F9D110BD8A4228D09A076E
:103E500029D01A7818460133002AF6D11046704747
:103E6000CAB90268A2F1013323EA020313F0803FCA
:103E700008D150F8042FA2F1013323EA020313F012
:103E8000803FF6D003785BB110F8013F002BFBD1E7
:103E90007047990705D0184613F8012B002AF8D16E
:103EA00070471846DDE71846A1E7184610BD00BF69
:103EB00001292DE9F0415BD94FF00108C6460024E5
:103EC0004FF0FF35434608E0A3EB05081C464FF0D2
:103ED000010E04EB0E03994210D900EB050CC75CF0
:103EE0001CF80E60B742EFD332D04FF001082546E0
:103EF000C646444404EB0E039942EED80127C2F8AB
:103F00000080BE4600244FF0FF363B4607E09F1B73
:103F10001C464FF0010E04EB0E03994210D900EB42
:103F2000060C10F803801CF80EC0E045EFD817D03F
:103F300001272646BE463C4404EB0E039942EED8C8
:103F40000136681C864201D317603046BDE8F08117
:103F5000C6450ABF74440EF1010E4FF0010EB8E7DA
:103F6000BE450ABF74440EF1010E4FF0010ED2E7B8
:103F700001270026E8E700BF2DE9F04FADF21C4D08
:103F8000934605AD2A4680468A46584619461C4641
:103F9000FFF78EFF2B4681460DF2144243F8044F83
:103FA0009342FBD16CB1601E58440BF1FF3212F802
:103FB000011FA31A013B06AE5B44824246F8213042
:103FC000F5D12B6801934A460BEB0301584600F0EC
:103FD00081F9002878D144F4006307460546AAEB2E
:103FE000040E0293661EAE4511D308EB050C06AA1B
:103FF0001CF8063052F82330C3B11FB1019A9A421F
:1040000088BFA31A1D44AE454FF00007EDD208EB60
:104010000A00029900F08CF98244AAEB040EAE4526
:10402000E3D200200DF21C4DBDE8F08F4F453B461A
:1040300038BF4B469E4218D9591EEA18594442448B
:10404000009502E001339E420ED012F8010B11F8E8
:10405000015F8542F6D09E42009D06D9C9F101025A
:104060002A44D5180027BEE7009D4F4509F1FF33CC
:1040700080F0818005EB090242440BEB09010095B9
:10408000CDF80C9002E09F4213D04B4611F8015D31
:1040900012F8010D854203F1FF39F4D0009DDDF8DF
:1040A0000C90013301379F4209D8019B1D44E71A48
:1040B00099E701379F42009DDDF80C90F5D96046E5
:1040C0000DF21C4DBDE8F08FA4EB09034B4538BF42
:1040D0004B4601332B60019344F400630025AAEBA7
:1040E000040E0093661EAE4509D308EB050006AA30
:1040F000835D52F823306BB11D44AE45F5D208EB19
:104100000A00009900F014F98244AAEB040EAE45AF
:10411000EBD286E7B14517D209F1FF3105EB090271
:10412000594442444B4602E00133B3420CD012F8EA
:10413000017B11F801CFBC45F6D09E4204D9C9F1EC
:1041400001022A44D518CEE7B9F1000F3FF46AAF57
:1041500005EB090141440BEB090202E05B453FF42A
:1041600061AF12F801CD11F8017DBC451346F5D0C1
:10417000019B1D44C1E74B4694E700BF2DE9F04188
:104180000D46097890B0044600294AD06A78002A82
:104190006AD0AB78002B48D0E878002878D02B790B
:1041A000002B66D02846FCF7EBFC064640F4007175
:1041B000204600F0BDF8864245D8FE2E00F28180F0
:1041C000801B27184022711C6846FCF78BFD6EB1DE
:1041D0006A1E5FFA86FC901912F8013F03F03F0354
:1041E0006B44A91A614490421970F5D1013CA35D5A
:1041F00003F03F036B441B781C44A74203D227E023
:104200004444A74224D314F806C00CF03F0CEC44FD
:104210003246294620469CF8008000F05BF80028D2
:10422000EED1204610B0BDE8F081007842EA0142AC
:1042300038B140EA03439A4214F8010FF8D1023C26
:10424000EFE79A42FBD00024204610B0BDE8F08191
:10425000BB5DB819002BF6D04FF4006100F068F890
:104260000744A742C2D2EEE710B0BDE8F041FFF725
:10427000B7BD2278002AE6D0296809BA42EA0323AA
:10428000204614F8012FB2B19942F7D1C41EC8E7F5
:10429000120442EA0162217842EA0323024641EA1B
:1042A000020059B1B3EB002F14F8011F4FEA0022AE
:1042B000F5D1033CB5E79942C5D1E7E79342C2D1B6
:1042C000F7E7014633462A46204610B0BDE8F041E4
:1042D000FFF752BE032A30B412D941EA0004A40702
:1042E00084460B4621D11946604653F8044B5CF8CE
:1042F000045BA54219D1043A032AF4D86046194652
:10430000541E7AB1431E0139021901E09A4209D0C4
:1043100013F8010F11F801CF6045F7D0A0EB0C00A6
:1043200030BC7047002030BC7047541EEAE700BF25
:1043300099B110B4034601EB000C01E09C4508D094
:104340001A4601331478002CF8D1101A5DF8044B8A
:10435000704708465DF8044B70470846704700BF39
:1043600010EE103A184923F000428A421AD9B2F1ED
:10437000FF4F02D330EE400A704700B583B0684665
:1043800000F02AF900F0030001289DED000ADDEDA0
:10439000010A10D0022809D090B900F053F803B0F8
:1043A0005DF804FBDFED090A00F04CB800F04AF8B4
:1043B000B1EE400AF3E700F0C7F8B1EE400AEEE7CD
:1043C000012000F0C1F8EAE7D80F493F00000000E3
:1043D00010EE103A194923F000428A421BD9B2F17B
:1043E000FF4F02D330EE400A704700B583B06846F5
:1043F00000F0F2F800F0030001289DED000ADDED69
:10440000010A13D002280BD098B9012000F09CF8C3
:1044100003B05DF804FBDFED0A0A002000F094B859
:10442000012000F091F8B1EE400AF1E700F00AF83F
:10443000EEE700F007F8B1EE400AE9E7D80F493F90
:104440000000000010EE103A23F00043B3F1485F83
:104450002CD2FDEEC07A17EE903A002B60D060EEC1
:10446000007A9FED317A9FED315ADFED315A9FEDA1
:10447000316ADFED316AA7EE875A9FED307AE7EEB9
:10448000855AA7EEA56AA7EE867AE7EE876A67EEF9
:10449000A66A60EEC00AB6EE007AE7EEA60AB7EEAC
:1044A000000AD7EE870A30EE600A704760EE007AA5
:1044B0009FED1D7A9FED1D5ADFED1D5A9FED1D6A80
:1044C000DFED1D6A1E4AA7EE875A93429FED1B7AC5
:1044D000E5EE275AA5EEA76AA6EE277AE7EE276A49
:1044E00066EEA76AD5D9174A934214D803F17F43E1
:1044F00007EE103AB7EE006A36EE476A60EEC00A81
:10450000F6EE005A97EEA57AE7EEA60A37EE607A45
:1045100036EE470A7047B6EE076AB5EE027AEDE767
:10452000B7EE000A704700BF4ED747ADF6740F31A3
:104530007CF293B4010DD037ABAA2A3D610BB6BA19
:104540009999993E0000483F10EE103A23F000433D
:10455000B3F1485F04D2FDEEC07A17EE903A5BB338
:1045600060EE007A9FED157ADFED155A9FED156A22
:10457000DFED156AE7EE875A9FED147AA5EEA76A7C
:1045800020EE275AE6EE276AA6EEA77A30B9DFEDCD
:10459000106AE7EE876AA6EE850A704727EE457A2D
:1045A000F6EE006AA0EEA67ADFED0A6AD7EE270AD9
:1045B000E5EE260A30EE600A704700BFD3C92E2F01
:1045C000342FD7B21BEF3836010D50B98988083C1B
:1045D000ABAA2ABEABAA2A3E70B510EE103A8B4A9F
:1045E00023F00044944286B0054671D9884A94422B
:1045F0001E4624D823F00042002BDFED867A864940
:1046000022F00F02B0EE407A40F3E6808A4270EE6C
:10461000677A09BF9FED817ADFED816ADFED816AFC
:1046200077EEC77A37EEE67A77EEC77A80ED007AD2
:1046300077EEE67AC0ED017A012006B070BD7A4AC5
:10464000944253D9B4F1FF4F49D2E215863AA4EB14
:10465000C25307EE903ABDEEE77ADFED746AB8EE2A
:10466000C77A77EEC77A8DED037A67EEA67ABDEE4C
:10467000E77AB8EEC77A77EEC77A8DED047A67EEFF
:10468000A67AF5EE407AF1EE10FACDED057A40F01B
:104690008E80B5EE407AF1EE10FA40F08A80012368
:1046A000634901910221009103A8294600F0D2F844
:1046B000002EC2DA95ED007AD5ED017AB1EE477A97
:1046C000F1EE677A85ED007AC5ED017A4042B4E7F4
:1046D000002285ED000A4260002006B070BD70EE39
:1046E000407AC0ED017AC0ED007AF5E700F0AAF853
:1046F0009FED507A9FED476AF6EE007AE0EE077A7A
:104700009FED477AFDEEE77AF8EEE76A17EE900A3A
:10471000A6EEC60A1F2866EE877AB1EE666A30EE0C
:10472000677A1EDC444A411E26F0004352F82120DD
:1047300023F0FF03934214D085ED007A30EE470A50
:10474000002E30EE670A85ED010ABFF676AFB1EEB6
:10475000477AB1EE400A85ED007A85ED010A4042C4
:104760006BE717EE103AC3F3C753C3EBD453082BD0
:104770004FEAE452E0DD9FED297A9FED2A5AF0EEF0
:10478000405AE6EE075A70EE657AE6EE077AD6EE04
:10479000857A35EEE77A17EE103AC3F3C753D21A8B
:1047A000192A08DCB0EE650A85ED007AC6E7032316
:1047B00076E7022374E79FED217A9FED215AB0EE50
:1047C000650AA6EE070A75EEC07AE6EE077AD6EE1F
:1047D000857A30EE677AAFE78A4270EE277A09BFB2
:1047E0009FED0E7ADFED0E6ADFED0E6A77EE877AC7
:1047F00037EEA67A77EEC77A80ED007A77EEA67A62
:10480000C0ED017A4FF0FF3017E700BFD80F493FE6
:10481000E3CB1640800FC93FD00FC93F0044353766
:104820004344353708A3852E800F49430000804359
:104830008452000884F9223F0452000800A3852E08
:1048400032318D2410EE103A23F0004300EE103A7E
:10485000704700BF2DE9F04F2DED048BDBB01C46F7
:10486000944603930A46BA4B68991CF1040F53F817
:104870002170824604F1FF39C0F25682BCF1030375
:1048800048BF0CF10403DB10029301334FEAC30E5F
:10489000ACEB0E030593029B17EB0900A3EB090396
:1048A00016D401309FEDAB7A699C18441EA9002BE9
:1048B000A4BF54F8235007EE905A03F10103ACBF94
:1048C000F8EEE77AF0EE477A8342E1EC017AEED136
:1048D000002FC0F2E28203991EA800EB81004FEA8C
:1048E00081087E18002346AD4C460AEB8101B9F1E0
:1048F000000F80F2C8800134B44245F8043B00F157
:104900000400F4D10DF1280B0BEB8703CDE9062E43
:10491000043B9FED929ADFED908A059804930AEB91
:10492000080446AE0BEB87080097CDF820C00DEBCE
:104930008703002F93ED460A4FEA870515DD7319AB
:104940005A4660EE097AB0EE407AFDEEE77A73EDF2
:10495000016AF8EEE77AB342A7EEE87A37EEA60AE4
:10496000BDEEC77AA2EC017AEBD1019000F0B8FA63
:10497000F4EE007AB0EE408A20EE270A00F01EFB2B
:10498000F2EE007AA0EE678A01980028FDEEC89A40
:10499000F8EEE97A38EE678A40F38280791EC0F13A
:1049A00008035BF821E04EFA03FC0CFA03F3AEEBCC
:1049B000030EC0F1070219EE903A4EFA02F2634478
:1049C000002A09EE903A4BF821E000F3AF80B5EEF3
:1049D000408AF1EE10FA74D1009B9F420ADD5D44DB
:1049E000002355F8041D454543EA0103F9D1002B86
:1049F00040F00281009B013B5BF823207B1C9C461E
:104A0000002A40F0F780049A012152F8045D013138
:104A1000002DFAD03944029D039A05EB030E0EF1E6
:104A2000804E699D0EF1FF3E3A4405EB8E0E1EADA1
:104A300006EB830705EB8205DEED017AF8EEE77AF7
:104A4000B9F1000F0EF1040EE5EC017ADFED417AC9
:104A500009DB2A465346F3EC016A32ED017AA342A0
:104A6000E6EE877AF7D10CF1010C8C45E7EC017A80
:104A7000E2DD0F465BE70134B442E5EC017A00F178
:104A800004003FF43FAFDFED337A83465346F3EC47
:104A9000016A3BED017A8B42E6EE877AF7D1EAE7CD
:104AA00000F09180F6EE007AB4EEE78AF1EE10FAAB
:104AB00080F22981B5EE408AF1EE10FA4FF0000243
:104AC0008AD09246DDE9062EDDF820C00197AEEBD4
:104AD0000C00B0EE480A009F009200F001FADFEDF2
:104AE0001E6AB4EEE60AF1EE10FADDE90023F0EEFC
:104AF000407AC0F29C819FED197A059920EE077AE1
:104B00000831BDEEC77A0591B8EEC77A5C1CE7EEB6
:104B1000667ABDEEC77AFDEEE77A17EE901A4BF88B
:104B2000231017EE103A4BF824307EE00133002FAB
:104B300009EE903A40F39D8159464FF0000E51F82E
:104B4000043B002B39D0C3F5807341F8043C0CE0E2
:104B5000C855000800000000000080430000803BB2
:104B60000B68C3F1FF0341F8043B0EF1010E7745DA
:104B7000F6DC01239E4600280BDD012800F0BB80F7
:104B8000022806D1791E5BF8213003F03F0C4BF868
:104B900021C0022A7FF41BAFB7EE000A734630EE45
:104BA000488A002B3FF413AF0992019000F098F966
:104BB0000198099A38EE408A09E70EF1010E77450F
:104BC000BDDC9E46D7E77B1E5BF82320D211002A6E
:104BD0007FF7FDAE19EE903A002F03F1010309EEC5
:104BE000903AA9DC022A7FF4F2AEF7EE007A37EEB3
:104BF000C88AECE619460EE73B469246DDE9051207
:104C00005C1EA1F108005BF82410009F059061B9BB
:104C100003F18043013B0BEB8303014653F8040D82
:104C2000013C08390028F9D0059105980092B7EEAB
:104C3000000A00F055F9002C009AB0EE407AC0F25C
:104C40002281601C46AD5FED3B6A81000BEB800367
:104C500005EB800073ED017AF8EEE77A5B4567EECD
:104C6000877A27EE267A60ED017AF3D10DF1C80834
:104C70000E1F2E44C646A4460025002F7DDBDFF81C
:104C80005C92DFED957A3046002307E0F9EC016A8B
:104C9000B0EC017A9F42E6EE877A03DB9D4203F196
:104CA0000103F3DA0CF1FF3CBCF1FF3FEEEC017ABB
:104CB00005F10105A6F10406E1D1689B022B6ADC2F
:104CC000002B36DC0ED1DFED847A414431ED017AE0
:104CD000884577EE877AF9D15346002B40F0C6809D
:104CE000C2ED007A19EE903A03F007005BB0BDEC1C
:104CF000048BBDE8F08F791E5BF8213003F07F0C48
:104D00004BF821C045E719EE903A002F03F101035B
:104D100009EE903AC8BF02223FF70EAFF7EE007AD5
:104D200037EEC88A022252E600234FF0080E0293A3
:104D3000AEE5DDED327A9FED687A414471ED016AAE
:104D4000884537EE267AF9D15346002B40F084800F
:104D500077EEC77A82ED007A64B133A90123B1EC12
:104D6000017A01339C4277EE877AF8DA53460BB129
:104D7000F1EE677AC2ED017AB4E70CF1FF3C002353
:104D8000BCF1FF3F4EF8043B05F10105A6F1040616
:104D90007FF473AF91E7689B032BA3D1002C00F045
:104DA0008C8008EB840595ED007AA0002B462946FF
:104DB00071ED017AF0EE476A37EE277A884577EE93
:104DC000C77A81ED007A77EEA67AC1ED017AEFD14C
:104DD000012C72D095ED007A08F1040173ED017A8F
:104DE000F0EE476A37EE277A994277EEC77A83ED7D
:104DF000007A77EEA67AC3ED017AEFD1031DDFEDDD
:104E0000367A434408F1080833ED017A984577EE85
:104E1000877AF9D15346DDED326A9DED337A73B965
:104E2000C2ED006A82ED017AC2ED027A5AE7FDEE28
:104E3000C07A1C4617EE901A4BF82310F5E6F1EEF7
:104E4000666AB1EE477AF1EE677AC2ED006A82EDEA
:104E5000017AC2ED027A45E7F1EE476A77EEC77A4A
:104E6000C2ED006A002C7FF478AF81E7F1EE677A3B
:104E700036E7012815D002287FF4B4AE0EF03F03C8
:104E80004BF82130AEE6689B022B12DC002B17DCBE
:104E90007FF428AFDFED107A1EE7039B4FEA83080B
:104EA00030E50EF07F03022A4BF821307FF48FADFE
:104EB0009BE6689B032B7FF415AFDFED077AA9E72C
:104EC0005346DDED327A1BB14FF0004313604FE7DC
:104ED000002313604EE700BF000000009C5500084F
:104EE00010EE103A33F000411A4625D0B1F1FF4FD1
:104EF0001FD213F0FF4F20D1DFED297A294A60EE4F
:104F0000277A904217EE903A31DB4CF2503CC3F3D3
:104F1000C75160451A46A1F1190114DD002BDFEDE0
:104F2000227A9FED210AB8BFDFED207A27EE800AB2
:104F3000704730EE000A704770474CF2503C6045B5
:104F40004FEAD151EADC0144FE29E7DC002915DCF7
:104F500011F1160F19DB193122F0FF4242EAC1525A
:104F600007EE902A9FED120A27EE800A7047DFEDC8
:104F7000117A07EE103A27EE270A704722F0FF4217
:104F800042EAC15300EE103A7047002BDFED097A78
:104F90009FED080AB8BFDFED087A27EE800A704758
:104FA0000000004CB03CFFFFCAF24971CAF249F15F
:104FB000000000336042A20D6042A28D10EE102A64
:104FC000C2F3C7537F3B162B22F000411BDC002BA2
:104FD00010461EDB1A4919410A4223D0DFED197A27
:104FE00070EE277AF5EEC07AF1EE10FA1ADD002A9B
:104FF00004DA4FF4000242FA03F3184420EA0103F2
:1050000000EE103A7047B1F1FF4F0BD330EE000ABB
:105010007047DFED0C7A70EE277AF5EEC07AF1EE8C
:1050200010FA00DC7047002A02DB9FED070A704788
:1050300011B99FED060A7047BFEE000AF2E700BF04
:10504000FFFF7F00CAF249710000000000000080ED
:10505000F8B500BFF8BC08BC9E467047F8B500BF65
:08506000F8BC08BC9E46704735
:105068002274797065223A2274696D652200000005
:105078002265706F636822002279656172220000E0
:10508800226D6F6E7468220022646179220000002C
:1050980022686F7572220000226D696E7574652230
:1050A80000000000227365636F6E64220000000038
:1050B800A0860100400D0300801A060000350C0090
:1050C80040420F0080841E0000093D0000127A0053
:1050D8000024F40000366E010048E801006CDC0290
:1050E80000000000010203040000000000000000AE
:1050F80001020304060708090020202020202020A0
:10510800202028282828282020202020202020206F
:10511800202020202020202020881010101010107F
:1051280010101010101010101004040404040404CB
:105138000404041010101010101041414141414165
:105148000101010101010101010101010101010147
:105158000101010110101010101042424242424257
:105168000202020202020202020202020202020217
:1051780002020202101010102000000000000000BF
:105188000000000000000000000000000000000017
:105198000000000000000000000000000000000007
:1051A80000000000000000000000000000000000F7
:1051B80000000000000000000000000000000000E7
:1051C80000000000000000000000000000000000D7
:1051D80000000000000000000000000000000000C7
:1051E80000000000000000000000000000000000B7
:1051F800000000000000000000000000000FC93F90
:10520800000F494000CB9640000FC9400053FB40B7
:1052180000CB164100ED2F41000F4941003162419A
:1052280000537B41003A8A4100CB9641005CA34180
:1052380000EDAF41007EBC41000FC94100A0D5413F
:105248000031E24100C2EE410053FB4100F203424B
:10525800003A0A420083104200CB164200141D4255
:10526800005C234200A5294200ED2F420036364259
:10527800007E3C4200C74242000F4942A2000000A3
:10528800F9000000830000006E0000004E000000DE
:10529800440000001500000029000000FC00000088
:1052A8002700000057000000D1000000F5000000B2
:1052B80034000000DD000000C0000000DB0000003A
:1052C8006200000095000000990000003C0000000A
:1052D800430000009000000041000000FE000000B4
:1052E8005100000063000000AB000000DE00000079
:1052F800BB000000C500000061000000B70000000E
:10530800240000006E0000003A0000004200000087
:105318004D000000D2000000E00000000600000080
:10532800490000002E000000EA000000090000000B
:10533800D1000000920000001C000000FE000000E8
:105348001D000000EB0000001C000000B100000080
:1053580029000000A70000003E000000E80000004F
:105368008200000035000000F50000002E0000005B
:10537800BB0000004400000084000000E9000000B9
:105388009C0000007000000026000000B40000002F
:105398005F0000007E0000004100000039000000AE
:1053A80091000000D60000003900000083000000D2
:1053B8005300000039000000F40000009C000000C9
:1053C800840000005F0000008B000000BD000000AA
:1053D800F9000000280000003B0000001F0000004A
:1053E800F800000097000000FF000000DE00000049
:1053F80005000000980000000F000000EF0000000A
:105408002F000000110000008B0000005A0000006F
:105418000A0000006D0000001F0000006D00000081
:10542800360000007E000000CF00000027000000CA
:10543800CB00000009000000B70000004F0000008A
:10544800460000003F000000660000009E000000CB
:105458005F000000EA0000002D0000007500000059
:1054680027000000BA000000C7000000EB000000A1
:10547800E5000000F10000007B0000003D00000096
:105488000700000039000000F70000008A00000053
:105498005200000092000000EA0000006B000000CB
:1054A800FB0000005F000000B10000001F000000CA
:1054B8008D0000005D00000008000000560000009C
:1054C800030000003000000046000000FC0000005F
:1054D8007B0000006B000000AB000000F000000043
:1054E800CF000000BC000000200000009A0000006F
:1054F800F4000000360000001D000000A9000000B4
:10550800E300000091000000610000005E00000060
:10551800E60000001B000000080000006500000015
:1055280099000000850000005F00000014000000E2
:10553800A000000068000000400000008D0000008E
:10554800FF000000D8000000800000004D000000AF
:105558007300000027000000310000000600000072
:10556800060000001500000056000000CA000000F8
:1055780073000000A8000000C900000060000000DF
:10558800E20000007B000000C00000008C0000006A
:105598006B0000000000C93F0000F0390000DA3756
:1055A8000000A2330000842E0000502B0000C22708
:1055B8000000D0220000C41F0000C61B00004417D2
:0C55C800040000000700000009000000C3
:0855D4005CB4FF7F0100000040
:0855DC00D90D0008C10C000804
:0455E400990C000816
:1055E8000800002000000000000000003C0200202D
:1055F800A40200200C0300200000000000000000AE
:105608000000000000000000000000000000000092
:105618000000000000000000000000000000000082
:105628000000000000000000000000000000000072
:105638000000000000000000000000000000000062
:105648000000000000000000000000000000000052
:105658000000000000000000000000000000000042
:105668000000000000000000000000000000000032
:105678000000000000000000000000000000000022
:1056880001000000000000000E33CDAB34126DE6BF
:10569800ECDE05000B000000000000000000000028
:1056A80000000000000000000000000000000000F2
:1056B80000000000000000000000000000000000E2
:1056C80000000000000000000000000000000000D2
:1056D80000000000000000000000000000000000C2
:1056E80000000000000000000000000000000000B2
:1056F80000000000000000000000000000000000A2
:105708000000000000000000000000000000000091
:105718000000000000000000000000000000000081
:105728000000000000000000000000000000000071
:105738000000000000000000000000000000000061
:105748000000000000000000000000000000000051
:105758000000000000000000000000000000000041
:105768000000000000000000000000000000000031
:105778000000000000000000000000000000000021
:105788000000000000000000000000000000000011
:105798000000000000000000000000000000000001
:1057A80000000000000000000000000000000000F1
:1057B80000000000000000000000000000000000E1
:1057C80000000000000000000000000000000000D1
:1057D80000000000000000000000000000000000C1
:1057E800000000000000000074030020020A00000E
:0C57F80000093D0001000000100000004E
:0400000508001C01D2
:00000001FF
