:020000040800F2
:1000000000000120D9110008891100088D11000895
:1000100091110008951100089911000800000000D6
:100020000000000000000000000000009D1100081A
:10003000A111000800000000A5110008A911000886
:1000400029120008291200082912000829120008A4
:100050002912000829120008291200082912000894
:100060002912000829120008291200082912000884
:100070002912000829120008291200082912000874
:100080002912000829120008291200082912000864
:100090002912000829120008291200082912000854
:1000A0002912000829120008291200082912000844
:1000B00029120008000000000000000029120008BA
:1000C00029120008000000000000000029120008AA
:1000D00000000000B911000829120008000000000B
:1000E000291200082912000800000000000000008A
:1000F0000000000000000000000000000000000000
:1001000000000000000000000000000029120008AC
:100110000000000000000000291200082912000859
:1001200029120008291200082912000829120008C3
:10013000291200080000000000000000000000007C
:1001400029120008291200082912000829120008A3
:100150002912000829120008291200082912000893
:1001600029120008291200082912000800000000C6
:1001700029120008291200080000000000000000F9
:0C018000291200082912000829120008AA
:1001C00053B94AB9002908BF00281CBF4FF0FF31BE
:1001D0004FF0FF3000F00CB8ADF1080C6DE904CE23
:1001E00002F0BAFDDDF804E0DDE9022304B0704757
:1001F000704700BF00000000000000000000000089
:1002000030B490F800F020F007016FF0000C10F00F
:10021000070491F820F040F048804FF000046FF0A0
:100220000700D1E9002391F840F000F1080082FABC
:100230004CF2A4FA8CF283FA4CF3A2FA8CF34BBB87
:10024000D1E9022382FA4CF200F10800A4FA8CF200
:1002500083FA4CF3A2FA8CF3E3B9D1E9042382FACE
:100260004CF200F10800A4FA8CF283FA4CF3A2FAE3
:100270008CF37BB9D1E9062301F1200182FA4CF21B
:1002800000F10800A4FA8CF283FA4CF3A2FA8CF382
:10029000002BC6D0002A04BF04301A4612BAB2FAA4
:1002A00082F200EBD20030BC7047D1E9002304F0A9
:1002B0000305C4F100004FEAC50514F0040F91F8DE
:1002C00040F00CFA05F562EA05021CBF63EA05037B
:1002D00062464FF00004AAE70348044B834202D071
:1002E000034B03B118477047180200201802002082
:1002F000000000000548064B1B1AD90F01EBA301B3
:10030000491002D0034B03B1184770471802002070
:10031000180200200000000010B5064C237843B9F5
:10032000FFF7DAFF044B13B10448AFF30080012359
:10033000237010BD180200200000000024370008C0
:1003400008B5054B1BB105490548AFF30080BDE872
:100350000840FFF7CFBF00BF000000001C020020D4
:1003600024370008830730B546D08418844604E05B
:1003700003F8011B9D0704D09C46A4456346F7D1B2
:1003800030BD013A0244A2EB0C02032A29D9CCB2B7
:1003900004EB04240F2A04EB04442FD9A2F1100C1F
:1003A0002CF00F0C03F11005AC44C3E90044C3E981
:1003B000024410336345F8D112F00C0F02F00F0E17
:1003C00018D02EF0030C9C44AEF104051A4642F8F6
:1003D000044B6245FBD125F0030404330EF0030205
:1003E0002344002ACCD0C9B21A4403F8011B93421B
:1003F000FBD130BD7246F4E70346C6E79646E0E718
:1004000070B50F4B0F4DAB42A3EB050607D0B610EE
:10041000002455F8043B01349847A642F9D803F06C
:1004200081F9094D094B5E1BAB424FEAA60606D087
:10043000002455F8043B01349847A642F9D870BD12
:10044000A4390008A4390008A4390008AC39000810
:10045000704700BF704700BF024B13B1024800F065
:1004600005B8704700000000790400080023014629
:100470001A46184600F014B838B5074D074C2C1B27
:10048000A41005D0013C55F8043D9847002CF9D143
:10049000BDE8384003F04CB9B0390008AC39000869
:1004A0002DE9F8431B4D0646286898460F469146AD
:1004B000FFF7CEFF184B1C681CB3286865681F2D1A
:1004C00022DC4EB96B1C0235636044F82570FFF7DF
:1004D000C1FF0020BDE8F88304EB85010123C1F8CA
:1004E0008890D4F88821AB401A43022EC4F88821A2
:1004F000C1F80881E6D1D4F88C211A43C4F88C21C4
:10050000E0E7064C1C60D8E7FFF7A4FF4FF0FF3090
:10051000E0E700BF08020020700300207403002001
:10052000014B1868704700BF0000002080B499B0EC
:1005300000AF0346FB710B46BB7113467B71002372
:1005400087F85F3037E000231A4697F85F3002FAE9
:1005500003F303F08003002B05D04FF090434FF0DE
:1005600080629A6104E04FF090434FF480629A6198
:100570004FF090434FF400629A610023BB6503E0A3
:1005800000BFBB6D0133BB65BB6D032BF8D94FF0CA
:1005900090434FF000629A6100237B6503E000BF47
:1005A0007B6D01337B657B6D032BF8D997F85F304A
:1005B000013387F85F3097F85F30072BC3D90023EA
:1005C00087F8533037E002231A4697F8533002FA7F
:1005D00003F303F08003002B05D04FF090434FF05E
:1005E00080629A6104E04FF090434FF480629A6118
:1005F0004FF090434FF400629A610023FB6403E0E4
:1006000000BFFB6C0133FB64FB6C032BF8D94FF08C
:1006100090434FF000629A610023BB6403E000BF87
:10062000BB6C0133BB64BB6C032BF8D997F8533018
:10063000013387F8533097F85330072BC3D9002381
:1006400087F8473036E0FA7997F8473002FA03F333
:1006500003F08003002B05D04FF090434FF08062F1
:100660009A6104E04FF090434FF480629A614FF03A
:1006700090434FF400629A6100233B6403E000BFA3
:100680003B6C01333B643B6C032BF8D94FF0904338
:100690004FF000629A610023FB6303E000BFFB6B35
:1006A0000133FB63FB6B032BF8D997F84730013319
:1006B00087F8473097F84730072BC4D94FF090435D
:1006C0004FF480629A61002387F83B3037E097F956
:1006D000062097F83B3002FA03F303F08003002B67
:1006E00005D04FF090434FF080629A6104E04FF0E4
:1006F00090434FF480629A614FF090434FF4006250
:100700009A6100237B6303E000BF7B6B01337B6353
:100710007B6B032BF8D94FF090434FF000629A6146
:1007200000233B6303E000BF3B6B01333B633B6B48
:10073000032BF8D997F83B30013387F83B3097F813
:100740003B30072BC3D94FF090434FF480629A613E
:10075000002387F82F3037E097F9052097F82F30DE
:1007600002FA03F303F08003002B05D04FF090430F
:100770004FF080629A6104E04FF090434FF4806242
:100780009A614FF090434FF400629A610023BB627C
:1007900003E000BFBB6A0133BB62BB6A032BF8D91D
:1007A0004FF090434FF000629A6100237B6203E0B8
:1007B00000BF7B6A01337B627B6A032BF8D997F811
:1007C0002F30013387F82F3097F82F30072BC3D9FC
:1007D0004FF090434FF480629A61002387F82330F2
:1007E0000EE00023FB6103E000BFFB690133FB6106
:1007F000FB69032BF8D997F82330013387F82330AE
:1008000097F823300F2BECD90023FB7634E000233C
:100810001A46FB7E02FA03F303F08003002B05D097
:100820004FF090434FF080629A6104E04FF09043A4
:100830004FF480629A614FF090434FF400629A61E6
:1008400000237B6103E000BF7B6901337B617B692F
:10085000032BF8D94FF090434FF000629A610023C8
:100860003B6103E000BF3B6901333B613B69032B04
:10087000F8D9FB7E0133FB76FB7E072BC7D900231B
:10088000FB730CE00023BB6003E000BFBB680133D7
:10089000BB60BB68032BF8D9FB7B0133FB73FB7B8D
:1008A0008B2BEFD900BF00BF6437BD465DF8047BDA
:1008B000704700BF30B5034683B00D461048194657
:1008C00002F03EFEC8B13A2102F06CFCA8B1013042
:1008D000044610F8013B202BFAD0092BF8D0002356
:1008E0000A2201A92046019302F04EFC019B9C4282
:1008F00003D02860012003B030BD002003B030BD1C
:100900001C0500202DE9704FA0B000F0B7FC442278
:1009100000210EA8FFF726FD0023CDE90933CDE91C
:100920000B33BA4C0D93A36D43F08053A365A36DB5
:1009300003F0805308934FF40070089B01F0D8F93E
:1009400010230E936023012216930023CDE9142374
:1009500028234FF0020801261B93072204230EA828
:10096000CDE91886CDE91C231A96CDF8788000F0E1
:10097000CDFD08B172B6FEE70346CDE90B330D930A
:100980000F22032309A80421CDE9092301F0CEF8A1
:100990008146002840F0C882E36C9D4D43F001037E
:1009A000E364E36C109003F00103CDE91180099337
:1009B0000EA94FF090404FF4807A4FF0010BCDE933
:1009C0000EAB099B01F0D4F94FF440630EA94FF030
:1009D00090400E93CDE90F69CDF8448001F0C8F93D
:1009E000E16C41F00201E164E16C01F00201069169
:1009F0000699216E41F480412166216E01F4804107
:100A0000C02007910723032207990E900EA9814861
:100A1000CDE91123CDE90F8601F0AAF97E49C5F889
:100A200010904FF4E13B4FF00C0A2846C5E9001B3B
:100A3000C5E90299C5E90699C5F814A002F022F8A3
:100A40004A460521252000F05FFC252000F098FC97
:100A5000E06C40F00100E064E06C00F00100049004
:100A60000498A06D40F40030A065A06DCDF83C80E6
:100A700000F40030032205900723CDE911230EA9CD
:100A8000059B109604234FF090400E9301F070F9EF
:100A90006248634BC0F81C90C0E901B9C0E90399F2
:100AA000C0E905A9036001F0EDFF5E493246284622
:100AB00001F082FB002840F039825B4A5B4ED37A1A
:100AC000DFF884815A4D5B4CDFF880B1824603F039
:100AD000FF09002B00F01C82137A574A5249DBB2FF
:100AE000A2FB03294FEAD90202EB8202A3EB4200E8
:100AF000CB7A01304FEAD9095FFA80FC03F0FF029C
:100B0000002B00F00E824B7A4B4ADBB2A2FB032192
:100B1000CA0802EB8202A3EB4203DBB2CA080292CC
:100B2000039309EBC909B023C8F800A04FEA4909AB
:100B300033706FF04F020020CDF804C04FF028034F
:100B40002B70C4F800A02821002303EB43034B447F
:100B50005B44185CFFF7EAFC2978236896F90020CB
:100B6000D8F8000001330A3949B2052B29702360F7
:100B7000EBDD01300A3252B202283270C8F80000B0
:100B8000DCDDDDF804C0C8F800A00CEBCC00D823F5
:100B90004FEA400933706FF0270200204FF028031E
:100BA0002B70C4F800A02821002303EB43034B441F
:100BB0005B44185CFFF7BAFC2978236896F900209B
:100BC000D8F8000001330A3949B2052B2970236097
:100BD000EBDD01300A3252B202283270C8F8000050
:100BE000DCDD4FF028032B70144B154A1B68C4F84A
:100BF00000A0312B134B98BF99464FF0050388BFD7
:100C0000914633701A462821202025E0001002402A
:100C1000B8060020000400480038014030060020DB
:100C2000004400401C06002020060020140500207F
:100C30000C05002008050020CDCCCCCC04050020FC
:100C40008C37000894370008100500209C370008F6
:100C500019F8030096F90020FFF768FC297823684B
:100C60000A39013349B2052B29702360F0DD029B5C
:100C7000C8F800A003EBC3091B224FEA49093270F0
:100C800000204FF028032B70C4F800A02821002377
:100C900003EB43034B445B44185CFFF747FC2978A4
:100CA000236896F90020D8F8000001330A3949B2C8
:100CB000052B29702360EBDD01300A3252B2022885
:100CC0003270C8F80000DCDD039BC8F800A04322A6
:100CD00003EBC30932704FEA490900204FF02803A3
:100CE0002B70C4F800A02821002303EB43034B44DE
:100CF0005B44185CFFF71AFC2978236896F90020FA
:100D0000D8F8000001330A3949B2052B2970236055
:100D1000EBDD01300A3252B202283270C8F800000E
:100D2000DCDD6FF04F026FF01D014820FFF7FEFB86
:100D30006FF045026FF01D014820FFF7F7FB6FF0E1
:100D40003B026FF01D014820FFF7F0FB6FF031020E
:100D50006FF01D014820FFF7E9FB6FF027026FF0ED
:100D60001D014820FFF7E2FB6FF01D0211464820ED
:100D7000FFF7DCFB6FF013026FF01D014820FFF757
:100D8000D5FB6FF009026FF01D014820FFF7CEFB85
:100D900000226FF01D014820FFF7C8FB0A226FF008
:100DA0001D014820FFF7C2FB14226FF01D014820EF
:100DB000FFF7BCFB1E226FF01D014820FFF7B6FBBA
:100DC00028226FF01D014820FFF7B0FB32226FF0A0
:100DD0001D014820FFF7AAFB3C226FF01D014820AF
:100DE000FFF7A4FB46226FF01D014820FFF79EFB92
:100DF00050226FF01D014820FFF798FB5A226FF038
:100E00001D014820FFF792FB6FF04F026FF0310198
:100E10004820FFF78BFB6FF045026FF0310148204F
:100E2000FFF784FB6FF03B026FF031014820FFF7C2
:100E30007DFB6FF0310211464820FFF777FB6FF022
:100E400027026FF031014820FFF770FB6FF01D02A1
:100E50006FF031014820FFF769FB6FF013026FF06C
:100E600031014820FFF762FB6FF009026FF031019A
:100E70004820FFF75BFB00226FF031014820FFF7AD
:100E800055FB0A226FF031014820FFF74FFB142277
:100E90006FF031014820FFF749FB1E226FF031014E
:100EA0004820FFF743FB28226FF031014820FFF76D
:100EB0003DFB32226FF031014820FFF737FB3C2227
:100EC0006FF031014820FFF731FB46226FF031010E
:100ED0004820FFF72BFB50226FF031014820FFF72D
:100EE00025FB5A226FF031014820FFF71FFB104A03
:100EF00013680133642B28BF00230520136000F022
:100F0000DFF90C4AD37A03F0FF09002B7FF4E4AD3C
:100F10000849CB7A4FF0010C03F0FF02002B7FF45D
:100F2000F2ADCDE90222FCE572B6FEE772B6FEE74D
:100F30000405002020060020794B02689A4200D068
:100F400070472DE9704F774B774C1A7823680A2A3F
:100F500088B013D0FE2B0CD900232360714973484D
:100F6000012201F029F908B172B6FEE708B0BDE828
:100F7000708F6F48591CC2542160EFE76C49002202
:100F8000CA54002BE8D06B49694802F0D9FA00280E
:100F900000F0AF806849664802F0D2FA002800F0FD
:100FA000A8803A2102F0FEF80346002800F0A18054
:100FB00001331D4613F8012B202AFAD0092AF8D054
:100FC0000DF1140800230A2241462846059302F039
:100FD000DBF8059B01909D4200F08B8057495448F7
:100FE00002F0AEFA002800F084803A2102F0DAF82C
:100FF000034600287DD001331D4613F8012B202A1B
:10100000FAD0092AF8D000230A224146284605933F
:1010100002F0BAF8059B9D4282466AD0484944488E
:1010200002F08EFA002864D03A2102F0BBF80346A1
:1010300000285ED001331D4613F8012B202AFAD078
:10104000092AF8D000230A2241462846059302F0D7
:101050009BF8059B9D4281464BD03A49344802F0AB
:101060006FFA002845D03A2102F09CF80346002888
:101070003FD001331D4613F8012B202AFAD0092A4C
:10108000F8D000260A2241462846059602F07CF850
:10109000059B9D4283462CD02B4802A9FFF70AFCF2
:1010A00038B32A4803A9FFF705FC10B304AD28485C
:1010B0002946FFF7FFFBE8B1019B059369F307069B
:1010C000029B9DF81020ADF818A06BF30F2663F378
:1010D0001746039B8DF81E2063F31F6601238DF8CE
:1010E0001F30CDF81A6098E807001A4B83E8070014
:1010F00000E004AD0E48FFF783F8024648B90A261F
:1011000005230122294614488DF8106000F0C6FF1F
:1011100022E707491048142392B200F0BFFFEEE720
:10112000003801401C06002018050020B8060020E9
:101130001C0500203C3700084C37000854370008D5
:101140005C370008643700086C3700087437000803
:1011500080370008200600203006002008B502680D
:10116000064B9A4200D008BD05490648012201F00D
:1011700023F80028F7D072B6FEE700BF0038014020
:101180001C060020B8060020704700BFFEE700BF25
:10119000FEE700BFFEE700BFFEE700BF704700BFED
:1011A000704700BF704700BF08B500F077F8BDE892
:1011B000084000F00FB900BF014801F089B800BF36
:1011C000B8060020034AD2F8883043F47003C2F80E
:1011D0008830704700ED00E0DFF834D0FFF7F2FF11
:1011E0000C480D490D4A002302E0D458C450043382
:1011F000C4188C42F9D30A4A0A4C002301E0136058
:101200000432A242FBD3FFF7FBF8FFF77BFBFEE7BC
:10121000000001200000002018020020B039000862
:101220001802002044070020FEE70000704700BFBE
:1012300038B50F4B1B780BB9012038BD0D494FF461
:101240007A720546B2FBF3F30868B0FBF3F000F0E6
:10125000A5F804460028EFD10F2DEDD80246294607
:101260004FF0FF3000F050F8034B20461D6038BDB2
:10127000100200200C0200201402002010B50320F0
:1012800000F030F80F20FFF7D3FF10B10124204603
:1012900010BD0446FFF7CAFF204610BD034A044BA9
:1012A00011681B780B441360704700BF4007002093
:1012B00010020020014B1868704700BF4007002053
:1012C00038B50446FFF7F6FF631C054602D0044B11
:1012D0001B781C44FFF7EEFF401BA042FAD338BD39
:1012E000100200200749CA6803024FF6FF0003F40A
:1012F000E0630240134343F0BF6343F40033CB6029
:10130000704700BF00ED00E01B4BDB68C3F3022316
:1013100000B5C3F1070EBEF1040F03F1040C28BFA2
:101320004FF0040EBCF1060F1CD9A3F1030C4FF0D3
:10133000FF3303FA0CF322EA03024FF0FF3303FA00
:101340000EF321EA030303FA0CF313431B010028F5
:10135000DBB20ADB00F1604000F5614080F8003349
:101360005DF804FB00229446E7E7044A00F00F0012
:10137000024413765DF804FB00ED00E0FCEC00E0B5
:10138000002807DB044A4109012300F01F008340C5
:1013900042F82130704700BF00E100E00138B0F1B1
:1013A000807F01D30120704710B44FF0E023074C39
:1013B00058614FF0F00C84F823C00022072110463A
:1013C0009A615DF8044B1961704700BF00ED00E0C1
:1013D000704700BF08B5FFF7FBFF08BD30B5204DD3
:1013E000AB6DDB0083B004461AD500F079FCB0F594
:1013F000007F27D0802C2CD82FD0A4F17004B4FA11
:1014000084F4640917490B6823F0070323430B6036
:10141000086800F00700001B18BF012003B030BDB2
:10142000AB6D43F08053AB65AB6D03F0805301931C
:10143000019B00F055FCAB6DB0F5007F23F08053AD
:10144000AB65D7D1802C06D9A02C8CBF02240124F7
:10145000D8E70324D6E70024D4E70224D2E700BF6C
:101460000010024000200240244A9368D26813F022
:101470000C0307D00C2B34D0042B3AD0082B36D0D9
:10148000002070471D4A1168090754BFD2F8942004
:1014900012681B4954BFC2F30322C2F3031251F86E
:1014A0002200002BEDD0154BDB6803F00303022B69
:1014B00021D0144A032B08BF1046104BD968DA68B4
:1014C000DB68C3F34163C2F30622C1F302110133A7
:1014D00000FB02F201315B00B2FBF1F2B2FBF3F070
:1014E000704702F00302012ACCD00020DBE7054858
:1014F0007047054870470448DFE700BF001002400E
:101500005038000800127A000024F400002800F08F
:1015100039822DE9F043A94A03689568D668D9064F
:1015200083B0044605F00C0506F003061A462FD5D5
:10153000002D00F0F1800C2D00F0EB80A3699F4F8F
:10154000002B00F0AE813B6843F001033B60FFF7E6
:10155000B1FE804606E0FFF7ADFEA0EB08000228D2
:1015600000F29B813B689A07F5D53B6843F008037E
:101570003B603B68226A23F0F00313433B607B68C7
:10158000E26923F47F4343EA02237B6023681A461F
:10159000DF0729D5082D00F036810C2D00F03081B1
:1015A0006368B3F5803F00F09081B3F5A02F00F0A1
:1015B0001082824F3A6822F480323A603A6822F40C
:1015C00080223A60002B40F08581FFF773FE804651
:1015D00006E0FFF76FFEA0EB0800642800F25D81D3
:1015E0003B689803F5D42268910713D5042D40F089
:1015F000D580724B1B685A0503D5E368002B00F0B9
:10160000FB806E4A2169536823F0F85343EA016373
:1016100053602268110719D56369684E002B00F0EA
:10162000FB80D6F8943043F00103C6F89430FFF7FE
:1016300041FE074605E0FFF73DFEC01B022800F211
:101640002C81D6F894309A07F5D5226857073FD5F4
:101650005A4B9A6DD60000F169819A6D42F0805222
:101660009A659B6D03F080530193019B0126544FB3
:101670003B68D80540F10081A368012B00F0E080B1
:10168000052B00F0B3814D4FD7F8902022F00102D6
:10169000C7F89020D7F8902022F00402C7F89020D5
:1016A000002B40F0D480FFF705FE41F288398046D8
:1016B00006E0FFF7FFFDA0EB0800484500F2ED80D3
:1016C000D7F890309B07F4D4002E40F07681226842
:1016D000900618D5636A394E002B00F05981D6F870
:1016E000983043F00103C6F89830FFF7E3FD074652
:1016F00005E0FFF7DFFDC01B022800F2CE80D6F820
:1017000098309907F5D5A36A002B40F0F3800020AC
:1017100073E0012E7FF412AF284B1B689B0768D43F
:10172000264B206A1A68170756BFD3F894301B68F7
:101730001B0903F0F003984200F20C811F4B1A685A
:1017400042F008021A601A6822F0F00202431A609E
:101750005A68E16922F47F4242EA01225A60002D70
:1017600000F03181FFF780FE144B164A9B68C3F3EB
:101770000313D35C144A03F01F0320FA03F3106829
:10178000124A1360FFF754FD002836D12268D107B2
:1017900013463FF502AF91077FF53CAF0C2D00F0EB
:1017A000F380E368054E002B00F0C280336843F4F9
:1017B00080733360FFF77EFD07460EE000100240A5
:1017C0000070004088380008140200200C0200203D
:1017D000FFF770FDC01B02285FD833685B05F7D5A3
:1017E0007368226923F0F85343EA02637360226846
:1017F00010E7A369002B93D1012003B0BDE8F0836B
:10180000032E7FF4CDAEA84A1268900302D5626819
:10181000002AF1D01A46BEE7D6F8943023F001032F
:10182000C6F89430FFF746FD074604E0FFF742FD97
:10183000C01B022831D8D6F894309B07F6D404E7B1
:10184000994AD2F8903043F00103C2F89030FFF784
:1018500031FDDFF85482074641F2883904E0FFF792
:1018600029FDC01B484518D8D8F890309A07F6D5FE
:10187000002E3FF42CAFA0E03B6843F480733B6044
:10188000FFF718FD80463B68D9053FF5F5AEFFF739
:1018900011FDA0EB08000228F5D9032003B0BDE834
:1018A000F0833B6823F001033B60FFF703FD8046B4
:1018B00005E0FFF7FFFCA0EB08000228EDD83B682D
:1018C0009B07F6D423681A4662E6774A136843F406
:1018D00080331360FFF7EEFCDFF8CC81074604E0AD
:1018E000FFF7E8FCC01B6428D7D8D8F800309B036A
:1018F000F6D578E6022B00F087800C2D3FF47CAF04
:10190000694C236823F080732360FFF7D3FC0546FE
:1019100004E0FFF7CFFC401B0228BED823689B01E0
:10192000F7D4E268614B1340E360F0E600269EE6E0
:10193000336823F480733360FFF7BCFC074604E090
:10194000FFF7B8FCC01B0228A7D833685805F7D4A6
:1019500022685FE6FFF742FD00287FF44DAF524B4F
:101960001A6842F008021A601A68216A22F0F0022E
:101970000A431A605A68E16922F47F4242EA01226E
:101980005A60EFE601207047022E7FF40AAF30E67E
:10199000D6F8983023F00103C6F89830FFF78AFC98
:1019A000074605E0FFF786FCC01B02283FF675AF2F
:1019B000D6F898309A07F5D4A5E63B4A936D23F004
:1019C0008053936583E6FFF709FD00283FF4CAAE14
:1019D00012E703F18043A3F53C331A6842F48022F6
:1019E0001A601A6842F480321A6073E72E4BD3F8FB
:1019F000902042F00402C3F89020D3F8902042F0E7
:101A00000102C3F8902022E7274EE26AF36803F050
:101A1000030191424ED00C2D3FF4EEAE224D2B68C7
:101A20005B013FF5E9AE2B6823F080732B60FFF775
:101A300041FC064605E0FFF73DFC801B02283FF60F
:101A40002CAF2B689F01F6D4E968194BE26A206B32
:101A50000B401343D4E90D1243EA012343EAC26366
:101A6000D4E90F120138490843EA0013013952083A
:101A700043EA4153013A43EA4263EB602B6843F087
:101A800080732B60EB6843F08073EB60FFF712FC10
:101A9000054D04462B6898013FF539AEFFF70AFC67
:101AA000001B0228F6D9F8E600100240FCFFEEFE0B
:101AB0008C809D01216B03F070020139B2EB011F94
:101AC000A9D1616B03F4FE42B2EB012FA3D1A16B4C
:101AD00003F07842B2EBC16F9DD1E26B520803F480
:101AE000C001013AB1EB425F95D1226C520803F07C
:101AF000C063013AB3EB426F8DD1336899013FF572
:101B000006AE336843F080733360F36843F080734C
:101B1000F360FFF7CFFB044633689A013FF5F7AD5A
:101B2000FFF7C8FB031B022BF6D9B6E6002800F02E
:101B3000A080544A136803F007038B422DE9F0415B
:101B40000D4604460CD2136823F007030B431360C1
:101B5000136803F007038B4202D00120BDE8F08137
:101B60002368990703F0010270D5474EA068B16859
:101B700001F0F001884204D9B16821F0F00101437D
:101B8000B16032B36268404B032A1B6865D0022AF9
:101B90006CD0002A71D19E07DFD53B4EB36823F08D
:101BA00003031343B360FFF785FB41F28838074610
:101BB00004E0FFF77FFBC01B40455CD8B368626858
:101BC00003F00C03B3EB820FF3D12368990706D51A
:101BD000A0682D498A6802F0F002824240D8294963
:101BE0000A6802F00702AA4209D90A6822F007022D
:101BF0002A430A600A6802F00702AA42ADD15A07D6
:101C000006D52149E0688A6822F4E06202438A60CE
:101C10001B0707D51C4A2169936823F4605343EAE4
:101C2000C1039360FFF720FC174A184C92681849CB
:101C3000C2F303120346A25C164802F01F02D3400F
:101C4000BDE8F04100680B60FFF7F2BA002AC6D089
:101C500062680D4B032A1B6899D19B019DD47CE7D8
:101C60008A6822F0F00202438A60B8E79F0394D4A6
:101C700073E701207047032070E758057FF56DAFCB
:101C80008BE700BF002002400010024088380008A7
:101C90000C02002014020020054B064A9B680649EE
:101CA000C3F302230868D35C03F01F03D8407047D6
:101CB00000100240803800080C020020054B064A44
:101CC0009B680649C3F3C2230868D35C03F01F0373
:101CD000D840704700100240803800080C020020F5
:101CE000024B186800F4C060704700BF00700040ED
:101CF000B0F5007F0ED01B4A136803F4C063B3F540
:101D0000806F05D0136823F4C06343F480631360CD
:101D10000020704713490B6803F4C063B3F5007FDC
:101D2000F6D00B68104A23F4C06343F400730B60D1
:101D300013680E4A322000FB03F34869A2FB032319
:101D40009B0C400503F1010306D54A69520503F1D6
:101D5000FF3301D5002BF8D1024B5B695B05D7D56A
:101D600003207047007000400C02002083DE1B43FC
:101D70000B68002B00F086812DE9F04FB0F1904FF9
:101D800085B04FF000024FF0010B00F04481DFF806
:101D900004C3009169E0032F0BD00099D0F80C80A8
:101DA000896808EA060801FA04FE4EEA080EC0F83F
:101DB0000CE007FA04F407683E40344315F4403F52
:101DC00004604DD0B04E346E44F001043466346E7D
:101DD00004F001040394039C22F0030404F1804402
:101DE00002F003070F2104F58034BF0001FA07FE5B
:101DF000A649A668884226EA0E0600F03D81A4495D
:101E000088420CBF4FF0020E4FF0070E0EFA07F794
:101E10003E43A660DCF808406FEA0A06EF0254BFB2
:101E200034404AEA0404CCF80840DCF80C40A9022B
:101E300054BF34404AEA0404CCF80C40DCF80440B7
:101E4000AF0354BF34404AEA0404CCF80440DCF841
:101E50000040E90354BF34404AEA0404CCF800408F
:101E6000013233FA02F400F0F8800BFA02FE1EEAA7
:101E7000030AF5D000994D6805F0030754000321CB
:101E800007F1FF3801FA04F6B8F1010F6FEA060610
:101E900081D80099D0F80890C96809EA060901FAC2
:101EA00004F848EA0908C0F80880D0F804800099CE
:101EB00028EA0E08C5F3001E0EFA02FE4EEA080ECE
:101EC000C0F804E0D0F80C80896808EA060801FA36
:101ED00004FE4EEA080E022FC0F80CE07FF469AF52
:101EE00000994FEAD208096902F0070E00EB880852
:101EF0004FEA8E0E01FA0EF1D8F8209001910F21D1
:101F000001FA0EFE019929EA0E0941EA090EC8F804
:101F100020E04EE7D0F80890CD680AEA090905FAF2
:101F200007F848EA0908C0F80880D0F8048028EAD1
:101F30000E08C6F3001E0EFA02FE4EEA080EC0F8A6
:101F400004E0D0F80C808D680AEA080805FA07FE5C
:101F50004EEA080E022CC0F80CE019D14FEAD20E5E
:101F60000D694FEA8E0E02F007080EF1904E4FEA0F
:101F7000880805FA08F5DEF8209000950F2505FA87
:101F800008F8009D29EA080945EA0908CEF82080EA
:101F9000BC40076807EA0A073C4316F4403F046068
:101FA00035D0394F3C6E44F001043C663C6E04F081
:101FB00001040394039C22F0030404F1804404F51B
:101FC000803402F00307D4F808E00F25BF0005FABB
:101FD00007F72EEA0707A7602E4CF502A4686FEA00
:101FE0000C073DD43C402B4DAC60EC68B50240D4AE
:101FF0003C40284DEC606C68B50337D43C40254D1F
:102000006C602C68F5032ED43C40224D2C600132CC
:1020100033FA02F421D00BFA02FE13EA0E0CF6D0CA
:102020004E685700032505FA07F806F003046FEA27
:10203000080A04F1FF38B8F1010F7FF66BAF032CEB
:10204000A6D0D0F80C808D680AEA080805FA07FEC9
:102050004EEA080EC0F80CE09AE705B0BDE8F08F34
:102060004CEA0404BFE744EA0C04CEE744EA0C045B
:10207000C5E744EA0C04BCE74FF0010E0EFA07F77F
:102080003E43C6E6704700BF00100240000400480F
:102090000008004800040140704700BF2DE9F843E4
:1020A0000446C06F202869D10F4609B1154612B900
:1020B0000120BDE8F88398464FF000092123C4F8B9
:1020C0008490E367FFF7F6F8A368A4F85050B3F5DF
:1020D000805F0646A4F8525053D0B4F852202368CB
:1020E00092B23AB3B8F1FF3F3BD0B8F1000F55D0F0
:1020F000DA69150609D4FFF7DDF8801B804552D355
:1021000023681A68DA691506F5D5002F30D017F85C
:10211000012B1A85E26F02F02102212AC8D1B4F8FE
:102120005220013A92B2A4F85220B4F8522092B24E
:10213000002AD7D1B8F1FF3F29D0B8F1000F37D02E
:10214000DB69590609D4FFF7B5F8831B98452AD3F4
:1021500023681A68DB695906F5D52023E367002058
:10216000A7E7DA691006D0D4DA691006F9D5CCE70A
:1021700039F8022BC2F308021A85CBE70220BDE82A
:10218000F8832369002BA8D1B9461F46A5E7DA6971
:102190005206E2D4DA695206DFD4F8E7DA691206A9
:1021A000B3D4FFF787F82023E3670320BDE8F88363
:1021B000DB695B06F5D5D0E7D0F88030202B4ED117
:1021C00001B10AB90120704730B4394B04680025C9
:1021D0009C4205660AD063681B0207D554E8003F9D
:1021E00043F0806344E80035002DF7D185684165F0
:1021F0000023B5F5805FA0F85820A0F85A20836628
:1022000043D0002D48D10369002B0CBFFF237F234F
:1022100000212222C0F88410A0F85C30C0F8802091
:1022200004F1080353E8003F43F0010304F10801FF
:1022300041E80032002AF3D183680269B3F5805F78
:102240000FD01C4B83667AB154E8003F43F490737F
:1022500044E80032002AF7D1002030BC7047022049
:10226000704712BB144B836654E8003F43F02003D1
:1022700044E80032002AEFD054E8003F43F0200346
:1022800044E80032002AEFD1E6E70269002A40F272
:10229000FF1318BFFF23BBE7B5F1805FB8D1036917
:1022A000002B0CBF7F233F23B2E7024B8366CBE7B3
:1022B0000080004041270008FD260008704700BF4D
:1022C00008B5806AFEF74AFF08BD00BF704700BF2F
:1022D0000368DA69196840F60F0C12EA0C0F70B542
:1022E0009D68044616D1960602D58E0600F1F78049
:1022F000206E012800F0A980D60202D5680200F104
:10230000F280160600F19680500602D54A0600F1CA
:10231000818070BD15F0010640F0BF80AF480142DA
:10232000E6D0D50710D5C80540F11F8101201862FD
:10233000D4F8840040F00100C4F88400900740F114
:10234000F680002E40F0AD80550740F1F68016076C
:1023500000F1008115050AD5480108D54FF4006049
:102360001862D4F8840040F02000C4F88400D4F847
:1023700084000028CDD0920602D58E0600F1ED80B3
:10238000D4F884109A6801F0280102F0400252EA61
:10239000010500F05881194651E8002F22F490728F
:1023A00041E8002019460028F6D103F1080252E85E
:1023B000002F22F0010203F1080040E8002100296B
:1023C000F3D1226E012A00F0968000222021C4F869
:1023D000801022669968A2664D0640F1B78003F12D
:1023E000080252E8002F22F0400203F1080040E802
:1023F00000210029F3D1606F002800F0A780784BFE
:10240000836300F085FC002883D0606FBDE87040D6
:10241000836B184753E8002F22F0400243E8002165
:102420000029F7D120220023E267E3662046FFF768
:1024300045FF70BD0D067FF567AFE36E002B3FF4DF
:1024400068AF2046BDE870401847D0067FF554AF0E
:10245000CE067FF551AF10221A629968B4F8582061
:10246000480640F18680606F0568696889B2002976
:1024700000F0EF80914280F0EC80A4F85A102968B7
:10248000890640F1AF8002236366B4F85A10511AEE
:10249000204689B2FFF71AFF70BDD50742D49007D6
:1024A0003BD502201862D4F88400560740F004009F
:1024B000C4F8840033D504201862D4F884001507CA
:1024C00040F00200C4F884007FF544AF0820186291
:1024D000D4F8840040F00800C4F884003AE7836E22
:1024E000002BAFD115E74FF4801220461A62BDE8E9
:1024F000704000F0E5BB53E8002F22F0100243E8E3
:10250000002100293FF461AF53E8002F22F01002B0
:1025100043E800210029EED157E75607CBD4100736
:10252000D4D417E7C8053FF501AF9507B9D45007D4
:1025300003D5002E3FF40BAFBDE710077FF50AAFC0
:1025400001F0200030433FF405AFBFE72046FEF71F
:1025500005FE70BD8D06B9D4FCE6A26E002A3FF4DC
:102560000FAF2046904723680AE795073FF5ECAE8A
:10257000DDE7B4F85A00B4F85A1089B280B20029E5
:102580003FF4C7AE121A91B200293FF4C2AE53E82D
:10259000002F22F4907243E800200028F7D103F1C5
:1025A000080252E8002F22F0010203F1080545E875
:1025B00000200028F3D12022C4F88020A0662066E5
:1025C00053E8002F22F0100243E800200028F7D142
:1025D000022363662046FFF779FE70BD20010004E8
:1025E000C122000853E8002F22F4807243E8002142
:1025F0000029F7D103F1080252E8002F22F001026E
:1026000003F1080545E800210029F3D103F1080290
:1026100052E8002F22F0400203F1080545E80021AE
:102620000029F3D12022C4F88020216653E8002F2E
:1026300022F0100243E800210029F7D100F042FB0C
:10264000B4F858201FE72046FEF788FDC4F88450F0
:1026500070BD91427FF45DAE2B689B06B8D470BD0F
:1026600010B5036853E8002F22F4907243E800216C
:102670000029F7D103F1080252E8002F22F00102ED
:1026800003F1080444E800210029F3D11A4A8166C5
:1026900020249342C0F88040416602D05A6811025B
:1026A00016D4026E012A24D10022026653E8002FBC
:1026B00022F0100243E800210029F7D1DA69B0F8CE
:1026C0005810D20644BF10221A62FFF7FFFD10BD5A
:1026D00053E8002F22F0806243E800210029E0D077
:1026E00053E8002F22F0806243E800210029EFD157
:1026F000D7E7FEF721FC10BD00800040D0F8801025
:102700000268222905D0138B9BB243F00803138380
:102710007047928CB0F85CC0416D02EA0C0221F85F
:10272000022BB0F85A204165013A92B2A0F85A2023
:10273000B0F85A309BB2002BEAD1FFF791BF00BF2F
:10274000D0F880100268222905D0138B9BB243F089
:10275000080313837047928CB0F85CC0416D02EAA5
:102760000C020A70B0F85A20416D013A92B2A0F8FA
:102770005A20B0F85A20013192B24165002AE9D1BD
:10278000FFF76EBF436A1A0710B406D50168446BA1
:102790004A6822F4004222434A60DC0706D50168F9
:1027A000846A4A6822F4003222434A60990706D5B7
:1027B0000168C46A4A6822F4803222434A605A0798
:1027C00006D50168046B4A6822F4802222434A60DD
:1027D000DC0606D50168846B8A6822F480522243A5
:1027E0008A60990606D50168C46B8A6822F4005293
:1027F00022438A605A0609D50168046C4A6822F4AB
:1028000080122243B4F5801F4A600BD01B0606D508
:102810000268816C536823F400230B4353605DF816
:10282000044B70474A68446C22F4C00222434A6059
:10283000ECE700BF38B500230446C0F88430FEF74B
:1028400039FD21680B681B0705460ED40B685A0733
:102850002FD400232022E2671846C4F88020236684
:102860006366002384F8783038BDCB699802EDD4D4
:102870000BE01A68520705D5DA6910074AD4DA69FD
:10288000120575D4DB699802E0D4FEF713FD2368C6
:10289000421BB2F1007F1946EBD353E8002F22F020
:1028A000800243E800210029F7D12023E3670320B9
:1028B000D7E7CB695B02CCD40DE01A68500707D587
:1028C000DA69110700F18280DA69120500F1AC8043
:1028D000DB695B02BDD4FEF7EDFC431BB3F1007F67
:1028E0002368EAD353E8002F22F4907243E80021D2
:1028F0000029F7D103F1080252E8002F22F001026B
:1029000003F1080040E800210029F3D12023C4F896
:102910008030CCE708221A6253E8002F22F490722C
:1029200043E800210029F7D103F1080252E8002F03
:1029300022F0010203F1080040E800210029F3D150
:10294000226E012A0BD0002220200821C4F880002A
:10295000A266226684F87820C4F884109DE753E8C4
:10296000002F22F0100243E800210029F7D1EAE706
:102970004FF400621A6253E8002F22F4907243E889
:1029800000210029F7D103F1080252E8002F22F0BC
:10299000010203F1080040E800210029F3D1226E72
:1029A000012A0AD000222021C4F88010A2662266E3
:1029B00084F87820C4F884106FE753E8002F22F0E1
:1029C000100243E800210029F7D1EBE708221A6240
:1029D00053E8002F22F4907243E800210029F7D138
:1029E00003F1080252E8002F22F0010203F108006F
:1029F00040E800210029F3D1226E012A0BD00022E9
:102A000020200821C4F88000A266226684F878207D
:102A1000C4F8841066E753E8002F22F0100243E860
:102A200000210029F7D1EAE74FF400621A6253E867
:102A3000002F22F4907243E800210029F7D103F11E
:102A4000080252E8002F22F0010203F1080040E8DA
:102A500000210029F3D1226E012A0AD00022202170
:102A6000C4F88010A266226684F87820C4F8841026
:102A700038E753E8002F22F0100243E80021002934
:102A8000F7D1EBE7002800F0B68038B5C36F0446F5
:102A9000002B78D02568626A2423E3672B6823F033
:102AA00001032B60002A6AD1D4E90412A3682868C4
:102AB0000B431343E1697A4A0B43024013432B60F3
:102AC0006B68E26823F440531343764A6B60954287
:102AD000A369AA6832D0206A22F430620343134308
:102AE000714AAB60954213D0704B9D4242D103F5C1
:102AF000E633D3F8883003F00C030C2B3AD8DFE828
:102B000003F09939393972393939473939396C0013
:102B1000674BD3F8883003F00303022B38D0032B24
:102B20005BD0012B5FD0B1F5004F00F08B80FFF739
:102B3000C5F888BBC4E91A0022683DE022F430627F
:102B400013435B49AB60D1F8883003F44063B3F5BD
:102B5000006F58D051D8002B00F09180FEF784FC14
:102B60000028E7D0626802EB4203834202D8B0EB50
:102B7000023F4AD90023C4E91A33012038BD204658
:102B8000FFF700FE90E780F87830FFF785FA81E7DD
:102B9000B1F5004F7FD0474863684FF6EF7200EB06
:102BA0005300B0FBF3F0A0F110039342E2D8226887
:102BB0000023D060C4E91A33536823F49043536070
:102BC000936823F02A039360136843F001032046BF
:102BD0001360BDE83840FFF72DBEB1F5004F5CD063
:102BE0004FF40040D8E7B1F5004F51D0FEF73CFC60
:102BF0000028D1D19EE701207047B3F5406FB9D1CD
:102C00004FF40040AEE72B48ACE7002553084FF4E3
:102C1000807C2946E0FB0C3118462B46FDF7D0FAA4
:102C2000254BA0F540729A42A4D82268D060C4E92E
:102C30001A55C1E7B1F5004F27D0FFF72DF800284E
:102C4000AAD177E7FFF73AF800283FF473AF4300C3
:102C500062684FF6EF7103EB5203B3FBF2F3A3F19B
:102C600010028A4286D823F00F0189B22268C3F38A
:102C700042030B430021D360C4E91A119CE7FFF71C
:102C80000BF800283FF456AF6CE7FFF705F8DBE7D9
:102C9000FEF7EAFBD8E7094BDAE74FF48033D7E7D2
:102CA000F369FFEF0080004000380140004400401D
:102CB000001002400024F400FFFC0F000048E8016F
:102CC000704700BF90F82520022A034606D0042250
:102CD000C2630022012083F8242070470168426CFF
:102CE000086820F00E000860086820F00100086005
:102CF0004FF0010C196C02F01C020CFA02F24A604F
:102D00000022002083F825C083F82420704700BFEC
:102D100090F82520022A03D00422C26301207047C4
:102D20000168426C10B50C6824F00E040C600C684D
:102D300024F001040C6002F01C02046C012101FA71
:102D400002F26260826B80F82510002480F8244033
:102D500002B19047002010BD2DE9F047089D0F46B5
:102D600004468C46002B48D18A42164661D9B2FAF5
:102D700082F34BB1C3F1200201FA03FC20FA02F204
:102D80009E4042EA0C0C9C404FEA164EB7B2BCFB88
:102D9000FEF1220C0EFB11CC42EA0C4201FB07F0C3
:102DA000904209D9B21801F1FF3C80F0EE809042C8
:102DB00040F2EB8002393244121AA4B2B2FBFEF0A8
:102DC0000EFB102244EA024400FB07F7A74209D990
:102DD000341900F1FF3280F0DA80A74240F2D78048
:102DE0003444023840EA0140E41B00211DB1DC40BC
:102DF0000023C5E90043BDE8F0878B4206D90DB139
:102E0000C5E9000100210846BDE8F087B3FA83F167
:102E1000002948D1BB4202D3824200F20781841AC2
:102E200067EB030201209446002DE4D0C5E9004C75
:102E3000E1E7002A00F09280B2FA82F3002B40F022
:102E4000A8808A1A4FEA164E1FFA86FC0121200C30
:102E5000B2FBFEF70EFB172240EA02420CFB07F022
:102E6000904207D9B21807F1FF3802D2904200F21F
:102E7000E2804746121AA4B2B2FBFEF00EFB10220B
:102E800044EA02440CFB00FCA44507D9341900F1C4
:102E9000FF3202D2A44500F2CB801046A4EB0C0412
:102EA00040EA0740A2E7C1F120068B4022FA06FC67
:102EB0004CEA030C07FA01F420FA06F3F7404FEA54
:102EC0001C49234300FA01F81FFA8CFEB7FBF9F006
:102ED0001C0C09FB107744EA074400FB0EF7A742DD
:102EE00002FA01F20AD91CEB040400F1FF3A80F067
:102EF0009B80A74240F2988002386444E41B9FB252
:102F0000B4FBF9F309FB134447EA044403FB0EFE48
:102F1000A64509D91CEB040403F1FF3780F0828039
:102F2000A6457FD9023B644443EA0040A4EB0E046B
:102F3000A0FB02E7BC427346B94663D360D05DB1E3
:102F4000B8EB030264EB090404FA06F622FA01F373
:102F50001E43CC40C5E9006400214CE762084808E4
:102F600042EAC1710B0C43EA00438AB242EA0342CF
:102F7000B3FBF6F1E407B4463746B6461F23B0FB71
:102F8000F6F0D21B41EA004161E7614614E71046C2
:102F900028E7C3F1200120FA01F29E4027FA01F14F
:102FA0009F403A434FEA164E1FFA86FCB1FBFEF7EC
:102FB0000EFB1710110C41EA004107FB0CF8884585
:102FC00004FA03F43AD9711807F1FF3001D28845A9
:102FD0001FD8A1EB0801B1FBFEF808FB0CF70EFBB4
:102FE000181192B242EA0142BA422FD2B21808F145
:102FF000FF31C6D2BA42C4D2A8F102013244C0E7BE
:10300000F0459CD2BEEB020367EB0C070138B946D2
:1030100095E7A6EB08084144B81EB1FBFEF808FB93
:103020000CF7DCE73B467FE7504667E70846FBE6E0
:103030003444023832E7023F32441BE7A1EB080177
:103040003846B1FBFEF808FB0CF7C8E7414698E7A5
:10305000242B2DE9F84F43D8012B41D08046494815
:103060001F468E4675461EF801BB10F80B4014F043
:103070000804F7D1BBF12D0F6FD0BBF12B0F08BFA8
:103080009EF800B06FF0004908BF05F1020E73BB57
:10309000BBF1300F4BD00A273B460025B9FBF7F6B2
:1030A000284607FB169A05E03AD007FB00C0012529
:1030B0001EF801BBABF1300CBCF1090F06D9ABF126
:1030C000410CBCF1190F19D8ABF1370C63451EDD6B
:1030D000B5F1FF3FECD08642E6D24FF0FF35E7E78F
:1030E000FDF71EFA162303600020BDE8F88F102BB1
:1030F000D3D1BBF1300F23D01F46CEE7ABF1610C2B
:10310000BCF1190F03D8ABF1570C6345E0DC6B1C25
:103110002BD054B9002AE8D085BB1160BDE8F88FE8
:10312000E245C2DA4FF0FF35C2E74042F2E79EF8CF
:10313000003003F0DF03582B08D008273B46ACE7EC
:103140009EF8000000F0DF005828D5D110279EF827
:1031500001B03B460EF1020E9FE79EF800B04FF023
:10316000004905F1020E012491E72223C8F800303E
:1031700032B10EF1FF3148461160CFE78146F8E7E2
:103180004846B2E79938000810B4054C8446134607
:1031900020685DF8044B0A466146FFF759BF00BF3F
:1031A0000000002011F0FF01034600F0030239D0B7
:1031B0008ABB026810B501EB012E0EEB0E4E8EEAB3
:1031C0000204A2F1013323EA0203A4F1013222EA4C
:1031D0000402134313F0803F0FD150F8044F84EAE8
:1031E0000E0CA4F10133ACF1013223EA040322EA0C
:1031F0000C02134313F0803FEFD0037823B936E07D
:1032000010F8013F002B32D09942F9D110BD8A420B
:1032100028D09A0729D01A7818460133002AF6D107
:1032200010467047CAB90268A2F1013323EA0203CB
:1032300013F0803F08D150F8042FA2F1013323EAA4
:10324000020313F0803FF6D003785BB110F8013F22
:10325000002BFBD17047990705D0184613F8012BB6
:10326000002AF8D170471846DDE71846A1E718464E
:1032700010BD00BF01292DE9F0415BD94FF00108D5
:10328000C64600244FF0FF35434608E0A3EB05088F
:103290001C464FF0010E04EB0E03994210D900EBCF
:1032A000050CC75C1CF80E60B742EFD332D04FF06C
:1032B00001082546C646444404EB0E039942EED865
:1032C0000127C2F80080BE4600244FF0FF363B467F
:1032D00007E09F1B1C464FF0010E04EB0E039942C2
:1032E00010D900EB060C10F803801CF80EC0E04566
:1032F000EFD817D001272646BE463C4404EB0E0308
:103300009942EED80136681C864201D317603046D8
:10331000BDE8F081C6450ABF74440EF1010E4FF0BE
:10332000010EB8E7BE450ABF74440EF1010E4FF01E
:10333000010ED2E701270026E8E700BF2DE9F04F94
:10334000ADF21C4D934605AD2A4680468A46584646
:1033500019461C46FFF78EFF2B4681460DF214429C
:1033600043F8044F9342FBD16CB1601E58440BF1FB
:10337000FF3212F8011FA31A013B06AE5B448242E2
:1033800046F82130F5D12B6801934A460BEB030137
:10339000584600F081F9002878D144F400630746CC
:1033A0000546AAEB040E0293661EAE4511D308EB48
:1033B000050C06AA1CF8063052F82330C3B11FB121
:1033C000019A9A4288BFA31A1D44AE454FF00007E8
:1033D000EDD208EB0A00029900F08CF98244AAEBC6
:1033E000040EAE45E3D200200DF21C4DBDE8F08F77
:1033F0004F453B4638BF4B469E4218D9591EEA18E6
:1034000059444244009502E001339E420ED012F826
:10341000010B11F8015F8542F6D09E42009D06D94E
:10342000C9F101022A44D5180027BEE7009D4F4587
:1034300009F1FF3380F0818005EB090242440BEB78
:1034400009010095CDF80C9002E09F4213D04B4645
:1034500011F8015D12F8010D854203F1FF39F4D036
:10346000009DDDF80C90013301379F4209D8019B84
:103470001D44E71A99E701379F42009DDDF80C9043
:10348000F5D960460DF21C4DBDE8F08FA4EB0903A1
:103490004B4538BF4B4601332B60019344F4006326
:1034A0000025AAEB040E0093661EAE4509D308EB77
:1034B000050006AA835D52F823306BB11D44AE456A
:1034C000F5D208EB0A00009900F014F98244AAEB47
:1034D000040EAE45EBD286E7B14517D209F1FF31B4
:1034E00005EB0902594442444B4602E00133B34222
:1034F0000CD012F8017B11F801CFBC45F6D09E42EA
:1035000004D9C9F101022A44D518CEE7B9F1000F58
:103510003FF46AAF05EB090141440BEB090202E0FD
:103520005B453FF461AF12F801CD11F8017DBC4558
:103530001346F5D0019B1D44C1E74B4694E700BFFD
:103540002DE9F0410D46097890B0044600294AD093
:103550006A78002A6AD0AB78002B48D0E878002837
:1035600078D02B79002B66D02846FCF749FE06461A
:1035700040F40071204600F0BDF8864245D8FE2E8A
:1035800000F28180801B27184022711C6846FCF7DE
:10359000E9FE6EB16A1E5FFA86FC901912F8013FCF
:1035A00003F03F036B44A91A614490421970F5D1AE
:1035B000013CA35D03F03F036B441B781C44A7420E
:1035C00003D227E04444A74224D314F806C00CF0E9
:1035D0003F0CEC443246294620469CF8008000F01F
:1035E0005BF80028EED1204610B0BDE8F0810078ED
:1035F00042EA014238B140EA03439A4214F8010F0B
:10360000F8D1023CEFE79A42FBD00024204610B0EC
:10361000BDE8F081BB5DB819002BF6D04FF4006116
:1036200000F068F80744A742C2D2EEE710B0BDE848
:10363000F041FFF7B7BD2278002AE6D0296809BA21
:1036400042EA0323204614F8012FB2B19942F7D180
:10365000C41EC8E7120442EA0162217842EA032349
:10366000024641EA020059B1B3EB002F14F8011FE2
:103670004FEA0022F5D1033CB5E79942C5D1E7E70F
:103680009342C2D1F7E7014633462A46204610B09E
:10369000BDE8F041FFF752BE032A30B412D941EA27
:1036A0000004A40784460B4621D11946604653F80E
:1036B000044B5CF8045BA54219D1043A032AF4D800
:1036C00060461946541E7AB1431E0139021901E0C1
:1036D0009A4209D013F8010F11F801CF6045F7D0D5
:1036E000A0EB0C0030BC7047002030BC7047541E6B
:1036F000EAE700BF99B110B4034601EB000C01E00A
:103700009C4508D01A4601331478002CF8D1101AC1
:103710005DF8044B704708465DF8044B7047084657
:10372000704700BFF8B500BFF8BC08BC9E467047A4
:0C373000F8B500BFF8BC08BC9E4670470E
:10373C002274797065223A2274696D65220000004A
:10374C002265706F63682200227965617222000025
:10375C00226D6F6E74682200226461792200000071
:10376C0022686F7572220000226D696E7574652275
:10377C0000000000227365636F6E6422000000007D
:10378C00202020202020000020EC2020EE20000013
:10379C00AA9BA99C0A9D9C0A9D9C0A9D9C0A9DA97A
:1037AC009AAA20D9209A9520209520209520209502
:1037BC0020209A20AA9BA9200A9DAA9BA99C0A209A
:1037CC009C0A20A0A1A2AA9BA9200A9DAA9BA92081
:1037DC000A9D200A9DA0A1A22020209C0A9DAA9BA4
:1037EC00A9200A9D200A9D202020AA9BA99C0A0A98
:1037FC009C960A0A0A9D0A0A9DA99AAAAA9BA99CA8
:10380C000A20AA9BA99C0A9D9C0A9DA0A1A2AA9BE6
:10381C00A9200A9D200A9D200A9D200A9D20202077
:10382C00AA9BA99C0A9DAA9BA99C0A9D9C0A9DA047
:10383C00A1A2AA9BA99C0A9D9C969D0A0A9D0A0A74
:10384C009DA99AAAA0860100400D0300801A0600CB
:10385C0000350C0040420F0080841E0000093D0022
:10386C0000127A000024F40000366E010048E801D2
:10387C00006CDC02000000000102030400000000E8
:10388C0000000000010203040607080900202020A4
:10389C0020202020202028282828282020202020F4
:1038AC0020202020202020202020202020881010C4
:1038BC001010101010101010101010101004040420
:1038CC0004040404040404101010101010104141DE
:1038DC0041414141010101010101010101010101CC
:1038EC0001010101010101011010101010104242E0
:1038FC00424242420202020202020202020202029C
:10390C00020202020202020210101010200000003B
:10391C00000000000000000000000000000000009B
:10392C00000000000000000000000000000000008B
:10393C00000000000000000000000000000000007B
:10394C00000000000000000000000000000000006B
:10395C00000000000000000000000000000000005B
:10396C00000000000000000000000000000000004B
:10397C00000000000000000000000000000000003B
:10398C00000000000000000000000000000000002B
:08399C0064C8FF7F0100000078
:0839A40059040008410300086A
:0439AC0019030008F3
:1039B0000800002000000000000000003402002089
:1039C0009C02002004030020000000000000000012
:1039D00000000000000000000000000000000000E7
:1039E00000000000000000000000000000000000D7
:1039F00000000000000000000000000000000000C7
:103A000000000000000000000000000000000000B6
:103A100000000000000000000000000000000000A6
:103A20000000000000000000000000000000000096
:103A30000000000000000000000000000000000086
:103A40000000000000000000000000000000000076
:103A500001000000000000000E33CDAB34126DE613
:103A6000ECDE05000B00000000000000000000007C
:103A70000000000000000000000000000000000046
:103A80000000000000000000000000000000000036
:103A90000000000000000000000000000000000026
:103AA0000000000000000000000000000000000016
:103AB0000000000000000000000000000000000006
:103AC00000000000000000000000000000000000F6
:103AD00000000000000000000000000000000000E6
:103AE00000000000000000000000000000000000D6
:103AF00000000000000000000000000000000000C6
:103B000000000000000000000000000000000000B5
:103B100000000000000000000000000000000000A5
:103B20000000000000000000000000000000000095
:103B30000000000000000000000000000000000085
:103B40000000000000000000000000000000000075
:103B50000000000000000000000000000000000065
:103B60000000000000000000000000000000000055
:103B70000000000000000000000000000000000045
:103B80000000000000000000000000000000000035
:103B90000000000000000000000000000000000025
:103BA0000000000000000000000000000000000015
:103BB00000000000000000006C03002000093D0030
:083BC0000100000010000000EC
:04000005080011D905
:00000001FF
